:020000040800F2
:10000000D809002089020008910200089302000824
:1000100095020008970200089902000800000000FD
:100020000000000000000000000000009B0200082B
:100030009D020008000000009F020008A1020008C5
:10004000A3020008A3020008A3020008A3020008FC
:10005000A3020008A3020008F1130008A30200088D
:100060001D140008A3020008A3020008A302000850
:10007000A3020008A3020008A3020008A3020008CC
:10008000A3020008A3020008A3020008A3020008BC
:10009000A3020008A3020008A3020008A3020008AC
:1000A000A3020008A3020008A3020008A30200089C
:1000B000A3020008A3020008A3020008A30200088C
:1000C000A3020008A3020008A3020008A30200087C
:1000D000A3020008391B0008691B0008351C000832
:1000E000A3020008A3020008A3020008A30200085C
:1000F000A3020008A3020008A3020008A30200084C
:10010000A3020008A3020008A3020008A30200083B
:10011000A3020008A3020008A3020008A30200082B
:10012000A3020008A3020008A3020008A30200081B
:10013000A3020008A3020008A3020008A30200080B
:10014000A3020008A3020008A3020008A3020008FB
:10015000A3020008A3020008A3020008A3020008EB
:10016000A3020008A3020008A3020008A3020008DB
:10017000A3020008A3020008A3020008A3020008CB
:10018000A3020008A302000800F002F800F06DF8D6
:100190000AA090E8000C82448344AAF10107DA45E2
:1001A00001D100F062F8AFF2090EBAE80F0013F0C7
:1001B000010F18BFFB1A43F0010318479C290000E8
:1001C000BC29000010F8013B0A4413F0030408BFE7
:1001D00010F8014B1D1108BF10F8015B641E05D01B
:1001E00010F8016B641E01F8016BF9D1002D15D0D8
:1001F00010F8014B03F00C030C2BA1EB04040ABF15
:1002000010F8013BA4EB8314A4EB032405F10103D4
:1002100014F8016B5B1E01F8016BF9D5914238BFF0
:1002200010F8013BD1D3704700230024002500269D
:10023000103A28BF78C1FBD8520728BF30C148BF49
:100240000B607047662902F00484002070471FB5D8
:1002500002F0FAFB00F060FB04000020002102F035
:100260009BF9E0601FBD10B510BD00F055FC1146B4
:10027000FFF7EDFF02F03CF800F073FC03B4FFF76A
:10028000F2FF03BC00F0B6FC09488047094800476C
:10029000FEE7FEE7FEE7FEE7FEE7FEE7FEE7FEE736
:1002A000FEE7FEE704480549054A064B7047000093
:1002B000D11A000889010008D8030020D8090020BD
:1002C000D8050020D80500200FB41CB5074B06AA9E
:1002D0007B4469460090059800F005FB00206946C4
:1002E00000F014FB1CBC5DF814FB00003906000094
:1002F00070B5044685690068C10601D5302600E066
:100300002026C00707D070BDD4E9012130469047B0
:10031000206A401C20626D1EF6D570BD70B5044683
:1003200085690078C00707D170BDD4E9012120207C
:100330009047206A401C20626D1EF6D570BD0000FB
:100340002DE9F05F894604464FF0000ADFF824B13A
:10035000FB44C0F820A02046E168884700287DD0F3
:10036000252806D0D4E901219047206A401C20624C
:10037000F1E700255F462046E168884720280646C9
:1003800007DB312E05D2B81910F8200C08B105434F
:10039000F1E7A80701D525F00405C4F81CA0002743
:1003A000C4F818A02A2E09D0304601F055FF38B302
:1003B00004EB8708303EC8F8186019E059F8041BB0
:1003C000204604EB87029161E1688847012F0646C9
:1003D00018D1E069002820DA25F020051DE0D8F8C2
:1003E000180000EB800006EB40003038C8F8180019
:1003F0002046E1688847064601F02EFF0028EED12E
:10040000012F0AD02E2E08D12046E16888477F1C94
:100410000646022F45F02005C4DBA069002803DA58
:10042000404245F00105A061E80701D025F0100524
:10043000A6B1A6F14100192802D8203645F400657E
:100440004A463146204625604D46FFF7FBFE60B127
:10045000012807D0ED1D25F0070000E007E000F1BE
:10046000080978E705F1040975E730467AE7206A5C
:10047000BDE8F09F0227000010B5431C02E010F811
:10048000011B71B18107FAD14FF0013202C88C1AF9
:100490008C4314EAC211F9D0C01A0A0603D0C01E58
:1004A00010BDC01A10BD0A0401D0801E10BD090283
:1004B000FCD0401E10BD70477047704770472DE953
:1004C000FF4F0C461E464FF0FF378BB0D2E90001BC
:1004D000DDF860800A908A46C1F30A5505B93D46A9
:1004E000002108464FF00000BAF1000F00F4400070
:1004F00005DA00EB80004FF4400101EA50004FEABA
:100500009059B9F1010F00DDB9460A9850EA4A0046
:100510000ED044F61050A5F2FF3545432F14B8F124
:10052000000F1ED07542291E1EDDC9F100021CE01D
:10053000B8F1010F4FF0000001D0302103E0F24389
:1005400005E02154401CB042FBDB30460022002174
:1005500021540B99C1F80880C1E900200FB0BDE813
:10056000F08FBD1B6D1CDEE74A4600DA694206A823
:1005700000F05CFA06AB93E8070003AB83E80700E2
:1005800050460A9900F03DFB8DE80700A0F50050A9
:100590001F3800900398002D0ADD42F21F014A46E1
:1005A0000844002303A90390684600F0A6FD09E073
:1005B000A0F500504A461F38002303A9039068465F
:1005C00000F0B0FD8DE807000004000C03D04FF0F0
:1005D000FF30410800E01046B8F1000F03D00022C0
:1005E000009215461EE0751E05D400F099F93032D0
:1005F00062556D1EF9D5B3460122084302D0002290
:100600007F1C04E02078302801D100227F1E002AC0
:10061000099784D01DE0112D07DA00F081F93032FE
:1006200062556D1C50EA0102F5D1084302D00098D2
:10063000C8B10EE00021681E05E0235C625C6354D3
:100640002254401E491C8142F7DBAB46A81B401ECA
:100650000990002004F80B000B98099AC0F8088054
:10066000C0E9002B7AE711264FF0000857E72DE983
:10067000F04F88460446D21D22F0070191B0D1E91F
:100680000001CDE90A0101F0CFFD02460B98C00F31
:1006900001D02D2007E02068810701D52B2002E042
:1006A000202101EAC000032A099001D0072A05DBB6
:1006B00003464146204600F079F90BE12078800698
:1006C00001D5E06900E00620B8F1650F814606D04B
:1006D000B8F1660F18D0B8F1670F70D131E0002083
:1006E000B9F1110F009001DB112301E009F10103C1
:1006F0000AAA01A90CA8FFF7E2FEDDE90C700026AA
:1007000009F10105834647E001204B4600904FF078
:1007100000470AAA01A90CA8FFF7D1FEDDE90DB038
:100720000C995D46002610B909F101000D18B9EBCE
:10073000050003D4C0F1FF3609F10105A5EB09005E
:100740002BE0B9F1010F01DA4FF001090020B9F1F6
:10075000110F0090484601DD112300E003460AAA6C
:1007600001A90CA8FFF7ABFEDDE90C704D46002691
:100770008346207800070AD4AB4500DA5D4601A81D
:10078000012D04DD411911F8011C302907D04F4516
:1007900002DA17F1040F04DA012082460FE06D1E21
:1007A000EEE7002F02DCED1B3E4403E0781CA8427C
:1007B00000DD7D1CB81B00F1010A4FF000472078D6
:1007C000000703D4AA4501DB4FF0FF3A0021B7F13F
:1007D000004F0DF143088DF8431024D002202B2345
:1007E000002F01DA7F422D230A21021EA0F1010011
:1007F00000DC5FB197FBF1FC97FBF1F201FB1C7C85
:1008000017460CF1300C08F801CDEEE7A8F1010015
:1008100003702188090501D5452100E06521A0F17B
:10082000010800F8011C09980FA9A1EB0807FF1D9A
:1008300000B10120411901EBEA70A1693844081A9E
:10084000401EA0612078C00602D42046FFF750FD6C
:10085000099828B1D4E901219047206A401C206200
:100860002078C00622D52046FFF742FD1EE0002E6C
:1008700004DBB34502DD01A8805D00E03020D4E94F
:1008800001219047206A401C2062761CAAF10100D9
:100890005FEA000A0AD100F03FF8C0680168405CD6
:1008A000D4E901219047206A401C2062281EA5F14E
:1008B0000105DCDC07E0D4E9012118F8010B9047C1
:1008C000206A401C2062381EA7F10107F3DC204695
:1008D000FFF724FD032011B041E6000001694A1C26
:1008E00002610878704700B58FB0CDE90131002171
:1008F000059105497944CDE9031011466846FFF793
:100900001FFD0FB000BD0000E5FFFFFF0A6802F801
:10091000010B0A60704700000048704798030020F0
:1009200030B5B0F10A024FEA900E71F100034EEAC1
:10093000817EB0EB0E0061EB91014FEA101E4EEA92
:10094000017E10EB0E0041EB11114FEA102E4EEA22
:10095000016E10EB0E0041EB11214FEA104E4EEAF2
:10096000014E10EB0E0041EB1141401841F1000126
:100970004FEAD00040EA41704FEAD10110EB800508
:100980004FEA810444EA907444EB01046D1944EB8E
:100990000404521BA3414FF0000348BF0A3200D5A4
:1009A00030BD401C41F1000130BD00002DE9F04197
:1009B0001F46044603260168072A01F4006004DB91
:1009C00008B116A505E016A503E008B115A500E0DD
:1009D00015A521F010002060A069C01EA0610FB114
:1009E000401EA0612046FFF783FC4FB1D4E90121EE
:1009F00038469047206A401C2062C01C206206E0F6
:100A0000206AFAE7D4E9012115F8010B9047761E18
:100A1000F8D22046FFF782FCBDE8F0814E414E003F
:100A20006E616E00494E4600696E66002DE9F04722
:100A3000814616468AB0354878440DC88DE80D00C9
:100A400032487844801C03AC0DC884E80D0041F6A0
:100A50009B300844372190FBF1F290FBF1F5A5F1B2
:100A6000800501FB12041B3C02D56442012000E01A
:100A70000020DFF898A080460027FA44AAF1BE0AB9
:100A80000EE0E0070AD03246684607EB4701012333
:100A90000AEB810100F046FB8DE8070064107F1C23
:100AA000002CEED1194F7F44AE3F19E0E80715D076
:100AB00007EB04100DF1180A90E80E008AE80E000A
:100AC000C068F04201D1981908903246012306A966
:100AD00003A800F027FB03AB83E807006D10641C3C
:100AE000002DE3D14FF0010332466946B8F1000F03
:100AF00003A802D000F001FB01E000F013FBC9E9FC
:100B00000001C9F808200AB0BDE8F087A82000005D
:100B100000487047780300207546FFF7F9FFAE469E
:100B200005006946534620F00700854618B020B5F9
:100B3000FFF7B8FBBDE820404FF000064FF000077C
:100B40004FF000084FF0000B21F00701AC46ACE875
:100B5000C009ACE8C009ACE8C009ACE8C0098D46E2
:100B6000704710B50446AFF300802046BDE8104042
:100B7000FFF784BB4FF0013C50F8042B51F8043BC5
:100B80009A4221D1A2EB0C03934313EACC1317D161
:100B900050F8042B51F8043B9A4215D1A2EB0C03F8
:100BA000934313EACC130BD150F8042B51F8043BB8
:100BB0009A4209D1A2EB0C03934313EACC13DBD086
:100BC0004FF00000704700BFD01A01BAB1FA81F1AE
:100BD00001F0180122FA01F0CB40C1F12001DBB293
:100BE000C0B2C01A2CFA01F3D11A914311EAC31111
:100BF000E6D1704701491820ABBEFEE7260002008F
:100C000070475FEA400C08BF91F0000F4FEA8C2359
:100C10004FEAC12243EA51514FEA1C5018BF00F578
:100C2000F0404FEA300018BF41F000415FEA6C5CD1
:100C300000F02980BCF1FF3F08BF40F080407047C2
:100C4000130C06BF12044FF0100C4FF0000C130EE3
:100C500004BF12020CF1080C130F04BF12010CF1B7
:100C6000040C930F04BF92000CF1020CD30F04BFCD
:100C700052000CF1010C11464FF00002A0F11F00D0
:100C8000A0EB0C00704711F0004F08BF704731F027
:100C900000413FF4D5AF0B0C06BF09044FF0100C18
:100CA0004FF0000C0B0E04BF09020CF1080C0B0FE7
:100CB00004BF09010CF1040C8B0F04BF89000CF177
:100CC000020CCB0F04BF49000CF1010CCCF1200346
:100CD000A0EB0C0022FA03F302FA0CF241EA030142
:100CE00000F10100704720F07F4C80EA030023F000
:100CF0007F47ACEB070303F57C5300F0004003F1A2
:100D0000FF032DE980494FEA154B09B44FEA14431C
:100D100025EA0B4E24EA03480FF2042606EB1327BC
:100D200049083E785FEA320203FB0667C7F5000711
:100D300007FB06F64FEA54374FEAD64606F102069D
:100D400007FB066CCCF1005C4FEA1C472CEA074C11
:100D500007FB06F40CFB06F504EB15464FEA961666
:100D600034BF00204FF000404FEAD13706FB07FCAC
:100D70004FEA1C4C0CFB0BF7D21B03FB0CF761EB8F
:100D800007010CFB0EF7B0EB074072EB17420CFBB0
:100D900008F734BFA2EB0742B2EB074261EB174101
:100DA0004FEA0C444FEA910706FB07FC4FEA1C4C44
:100DB0000CFB0BF7B0EBC74072EB573203FB0CF7A1
:100DC00034BFA2EBC742B2EBC74261EB57310CFB19
:100DD0000EF7B0EBC70072EB57720CFB08F734BF8D
:100DE000A2EBC702B2EBC70261EB5771039F4FEA58
:100DF000816141EA921104EBCC044FEAD1374FEA0A
:100E0000826206FB07FC42EA90124FEA80604FEADA
:100E10001C4C0CFB0BF7D21B03FB0CF761EB07011F
:100E20000CFB0EF7B0EB074072EB17420CFB08F718
:100E300034BFA2EB0742B2EB074261EB17414FEA26
:100E40008C554FEA910704EB9C2406FB07FC4FEA04
:100E50001C4C0CFB0BF7B0EBC74072EB573203FB9B
:100E60000CF734BFA2EBC742B2EBC74261EB57317C
:100E70000CFB0EF7B0EBC70072EB57720CFB08F7D8
:100E800034BFA2EBC702B2EBC70261EB577115EB9F
:100E90004C254FEA816141EA92114FEA82624FEAA2
:100EA000D13742EA901206FB07FC44F100044FEAF6
:100EB00080604FEA1C4C0CFB0BF7D21B03FB0CF7BA
:100EC00061EB07010CFB0EF7B0EB074072EB17422A
:100ED0000CFB08F734BFA2EB0742B2EB074261EB11
:100EE000174115EB1C154FEA813141EA92414FEA57
:100EF000823242EA90424FEA80304FEA0C7644F167
:100F0000000448EA03434EEA0B484FF0000EB2EBF0
:100F1000080C71EB030724BF624639464EEB0E0EF8
:100F20004FF0000B0018524149414BEB0B0BB2EB59
:100F3000080C71EB03077BF1000B24BF62463946B6
:100F40004EEB0E0E4FF0000B0018524149414BEB97
:100F50000B0BB2EB080C71EB03077BF1000B24BF0A
:100F6000624639464EEB0E0E51EA020718BF46F0B4
:100F7000010616EB0E7655F1000254F1000103D57F
:100F8000BDE88901BDE80088BDE88901BDE80048E9
:100F9000B619524141EB0101A3F101037047808072
:100FA0007F7E7D7C7B7A79787776767574737271C3
:100FB00071706F6E6E6D6C6C6B6A6A69686867667B
:100FC00066656464636362616160605F5F5E5E5D0D
:100FD0005D5C5C5B5B5A5A59595858575756565581
:100FE00055555454535352525251515050504F4FE3
:100FF0004F4E4E4D4D4D4C4C4C4B4B4B4A4A4A4933
:101000004949484848474747474646464545454475
:101010004444444343434342424242414141002B02
:101020009C4630D477002BD01CB54FEA370703B469
:101030004FF010004FF01001BAF1000F06D0BCF1D4
:10104000000FDCBF40F0080040F008014FF0000046
:101050000FBCBDE810400BF1010BBBF1010F08BF45
:101060005FEA170722BF12F1010211F101014FF0EF
:10107000004143F1000300F0004043EA00007047E4
:10108000F9D35708D0E746EA064613F1400F4FEA76
:1010900016461FDD13F1200FDFBF16430A4600215D
:1010A00020335B42BED0C3F1200746EA064602FA6F
:1010B00007F74FEA164646EA0706C3F1200722FA69
:1010C00003F201FA07F721FA03F14FF0000342EAB5
:1010D0000702A7E746EA020646EA06464FEA164630
:1010E00046EA0106BCBF46EA0646360C4FF000034E
:1010F0004FF000024FF0000194E72DE9804C9A4632
:10110000934670B491E8380007C831EA400C48BFF4
:1011100034EA430C03D5FFF7E6FDFFF780FFF0BC90
:10112000BDE8008C2DE9804C9A46934670B491E856
:10113000380007C810F0804F08BF13F0804F03D16C
:1011400000F005F8FFF76BFFF0BCBDE8008C20F065
:101150007F4780EA030023F07F4C07EB0C03A3F5E5
:101160007C5300F00040A3F1FE0392F0000F00F06A
:10117000B38095F0000F00F077802DE901494FEA28
:1011800011404FEA144621EA004800FB06FC24EA1D
:10119000064708FB06F607FB08F800FB07F718EB05
:1011A00006484CEB164C4FEA124B18EB07484FEA37
:1011B00015464CEB174022EA0B4E0BFB06FC25EACA
:1011C00006470EFB06F607FB0EFE0BFB07F71EEBB2
:1011D000064E4CEB164C4FF000061EEB074E4CEB48
:1011E000174B18EB0B0840F1000018EB0E0B58EBF7
:1011F000000840F100008F1A4FF000013CBFC943C6
:10120000661B14BFB5EB040C00213CBFC943F61BA1
:101210004FEA17444EEA8E0E27EA04454FEA1C4770
:1012200004FB07622CEA074C05FB07F70CFB05F6ED
:1012300004FB0CFC16EB074642EB174216EB0C4680
:1012400042EB1C421BEB060658EB0202414146EA08
:101250009E0601D5BDE80189B619524141EB010155
:10126000A3F10103BDE801894FEA14454FEA114794
:1012700024EA054621EA074C05FB07F406FB07F7BD
:101280000CFB06F105FB0CFC11EB074144EB17448A
:101290004FEA124711EB0C4144EB1C4422EA074C85
:1012A00005FB07F206FB07F70CFB06F605FB0CFC3B
:1012B00016EB074642EB174216EB0C4642EB1C4579
:1012C0006A1854F1000148BF7047B619524141EB0A
:1012D0000101A3F10103704795F0000F37D04FEAE9
:1012E00011424FEA144721EA024624EA074C02FB66
:1012F00007F106FB07F70CFB06F402FB0CFC14EBF2
:10130000074441EB17414FEA154714EB0C4441EBFE
:101310001C4125EA074C02FB07F506FB07F70CFB0F
:1013200006F602FB0CFC16EB074645EB174516EBE1
:101330000C4645EB1C42121951F1000148BF7047A1
:10134000B619524141EB0101A3F1010370474FEA85
:1013500014454FEA114724EA054621EA074C05FBEC
:1013600007F106FB07F70CFB06F24FF0000605FB42
:101370000CFC12EB074241EB174112EB0C4251EB14
:101380001C4148BF7047921841EB0101A3F10103D2
:10139000704710B502460B460024012104E0505C62
:1013A0002044C4B2481CC1B2581E8842F7DCE04356
:1013B000401CC0B210BD00001CB50121202000F06F
:1013C0003FFA4FF48070009001208DF80400002057
:1013D0008DF8060003208DF8050000208DF8070029
:1013E0006946024800F0F6F81CBD000000140240F7
:1013F00010B5012000F052F801280CD10648007801
:1014000080F00100044908704FF4FA7000F02CFFDE
:10141000012000F03DF810BD9801002010B5042017
:1014200000F03CF801282AD11548007801281FD186
:101430001448006870B90120124908600020124960
:10144000C1F8A4020F490831086010490860091D5D
:1014500008600DE000200B49086001200A49C1F82E
:10146000A40208490831086008490860091D08609D
:101470004FF4FA7000F0F8FE042000F009F810BDF7
:1014800098010020A082424200804242B4024242BF
:101490000149086070470000143C014001460020EB
:1014A000034A12680A400AB1012000E00020704798
:1014B000143C0140002123498279002A3AD00A468F
:1014C000126803689A430B461A600A1D1268036883
:1014D0009A430B1D1A60027911440A6803681A4383
:1014E0000A60184A0832126803689A43154B083399
:1014F0001A601A1D126803689A43124B0C331A6063
:101500004279102A0ED11A1F126803681A430D4B34
:1015100008331A601A1D126803681A43094B0C330A
:101520001A600DE00749427911440A6803681A43BA
:101530000A6005E0027911440A6803689A430A6068
:1015400070470000003C014010B50121880300F005
:1015500097F94FF4A06000F069F90021084600F007
:1015600021FA012019490860002008710C204871F7
:10157000012088710846FFF79DFF06201449087076
:1015800002204870002088700120C870084600F0D2
:1015900011F90221042000F005FA04200B4908602B
:1015A000002008710C204871012088710846FFF75F
:1015B00081FF0820064908700220487000208870CA
:1015C0000120C870084600F0F5F810BDA402002004
:1015D000AC020020F0B50A4600210023002400BF21
:1015E0003DE0012505FA01F3156805EA03049C4274
:1015F00034D105684F000326BE40B5430560157918
:101600004E00B5400668354305601579012D02D0BE
:101610001579022D16D185684F000326BE40B543CB
:10162000856055794E00B5408668354385604568CC
:1016300001268E40B5434560456896798E40B6B226
:1016400035434560C5684F000326BE40B543C560BD
:10165000D5794E00B540C6683543C560491C102990
:10166000BFD3F0BDF0B5002300244D07ED0E02FA04
:1016700005F3CE1000F1200555F826504E07F70E61
:101680000F26BE40B543CF1000F1200646F8275084
:10169000CE1000F1200555F8265045EA0304CE107F
:1016A00000F1200545F82640F0BD000010B50121ED
:1016B000112000F0C5F80121880300F0E1F81D2099
:1016C0000749086000200871032048710020C87194
:1016D0000448FFF77FFF02490348FFF77BFF10BD77
:1016E0009C02002000000240001002401CB50121B5
:1016F000302000F0A5F84FF4CC40009001208DF888
:10170000040000208DF8060003208DF8050000205D
:101710008DF8070069460948FFF75CFF69460848ED
:10172000FFF758FF0120074908600749C1F8A802E0
:10173000064908600649C1F8B8021CBD0014024001
:1017400000100240A482424200804242B40242425F
:10175000000042420348006880F001000249C1F8DD
:10176000A4027047A48242420080424203480068BB
:1017700080F001000249C1F8A8027047A8824242E5
:10178000008042420348006880F001000249C1F82D
:10179000B4027047B402424200004242034800686B
:1017A00080F001000249C1F8B8027047B802424215
:1017B0000000424270B5002100230F22C4781CB300
:1017C000174C246804F4E064C4F5E064C4F3072112
:1017D000C1F10404E3B20A4144789C40E1B2847848
:1017E000144021430C07210E0E4C057861550478F6
:1017F00004F01F050124AC4005786D11AD0005F122
:10180000E025C5F8004109E0047804F01F05012433
:10181000AC40054D0678761145F8264070BD0000B5
:101820000CED00E000E400E080E100E0024901434B
:10183000024A1160704700000000FA050CED00E05C
:1018400029B1064A12680243044B1A6004E0034AB5
:1018500012688243014B1A60704700003038024022
:1018600029B1064A12680243044B1A6004E0034A95
:1018700012688243014B1A607047000040380240F2
:1018800029B1064A12680243044B1A6004E0034A75
:1018900012688243014B1A607047000044380240CE
:1018A000F0B5002100220024022500260223324F39
:1018B0003F6807F00C0121B1042905D0082937D170
:1018C00005E02E4F076036E02D4F076033E02A4FCA
:1018D0003F1F3F68C7F38056274F3F1F3F6807F001
:1018E0003F036EB1264FB7FBF3F7DFF88CC0ACF1C6
:1018F000040CDCF800C0CCF3881C07FB0CF40CE0F3
:101900001E4FB7FBF3F7DFF870C0ACF1040CDCF846
:1019100000C0CCF3881C07FB0CF4174F3F1F3F6837
:10192000C7F301477F1C7D00B4FBF5F7076002E0B9
:10193000124F076000BF00BF0F4F3F6807F0F00174
:101940000909104F7A5C0768D74047600A4F3F6823
:1019500007F4E051890A0B4F7A5C4768D7408760EB
:10196000054F3F6807F46041490B064F7A5C4768B2
:10197000D740C760F0BD0000083802400024F400E2
:1019800000127A001400002010B502460B46002019
:10199000002104E0545C0444E0B24C1CE1B29942E2
:1019A000F8DB10BD30B500228B071C0F0F2303FAA4
:1019B00004F20B4B8C1053F824309343084C8D10D9
:1019C00044F8253023468C1053F824308C07240F1C
:1019D00000FA04F42343024C8D1044F8253030BD46
:1019E000083801400CB50020019000903448006890
:1019F00040F480303249086000BF3148006800F48C
:101A0000003000900198401C0190009818B901988E
:101A1000B0F5A04FF1D12A48006800F4003010B1B1
:101A20000120009001E0002000900098012846D19C
:101A300023484030006840F0805021494031086020
:101A40002048006840F440401E4908601C480830A7
:101A500000681B49083108600846006840F40040EF
:101A600008600846006840F4A05008601648091F46
:101A70000860081F006840F08070091F086000BF00
:101A80000F48006800F000700028F9D040F205709F
:101A90000E4908600A480830006820F00300084931
:101AA000083108600846006840F00200086000BF86
:101AB00003480830006800F00C000828F8D10CBD7D
:101AC000003802400070004008544007003C0240CB
:101AD00010B51548006840F47000134908601348B9
:101AE000006840F001001149086000200F490831EA
:101AF00008600E4800680E4908400C4908600D480F
:101B0000091D0860081F006820F48020091F086074
:101B1000002006490C310860FFF764FF4FF00060B9
:101B200001498039086010BD88ED00E000380240AE
:101B3000FFFFF6FE1030002410B540F22551084892
:101B400000F0C6F9012809D1054800F07BFA0549E3
:101B5000087040F22551024800F092F910BD0000D3
:101B6000001001409702002010B540F22551244892
:101B700000F0AEF9012841D1214800F063FAC1B26A
:101B8000204802780078401C1E4B18701E48815473
:101B90000078FF2802D00020194608701948007804
:101BA000092826D100201749087009211648FFF797
:101BB000F0FB1549097A88421BD11349C978124AAA
:101BC000927841EA022000F061FE104A03C20F48F9
:101BD00090ED000B53EC102B0DA11448FEF774FB95
:101BE0001248FEF749FC84B222461049104800F022
:101BF00032FA40F22551024800F042F910BD0000CF
:101C0000004400409802002060030020B001002042
:101C1000D1CCCEEDD6B53A252D352E3266202020FA
:101C20002020202020202020200000004003002031
:101C30000010014010B586B040F225517D4800F0FB
:101C400047F901287DD17B4800F0FCF9C1B27A4800
:101C500002780078401C784B1870784881541846F8
:101C6000007802280AD1754800785A2803D17348B1
:101C700040785A2802D000206F4908706E480078DA
:101C8000092840D16D48807815283CD100206A4948
:101C9000087008216948FFF777FE6849097A884289
:101CA00031D1664909790906644A527941EA02410B
:101CB000624A927941EA0221604AD27941EA0200FD
:101CC00000F0E4FD5E4A03C29FED5E0B53EC102B67
:101CD0005B4890ED000B51EC100B00F07FFC584A74
:101CE00003C2574890ED000B53EC102B57A15D48F1
:101CF000FEF7EAFA5B48FEF7BFFB84B22246594979
:101D0000594800F0A8F94C4800780F287ED14B487C
:101D1000807845287AD10020474908700E2147482D
:101D2000FFF732FE4549897B88427CD14349497996
:101D3000424A127941EA022000F0A8FD4B4A03C250
:101D400000E075E09FED3F0B53EC102B474890ED02
:101D5000000B51EC100B00F041FC444A03C2374920
:101D600089790906354AD27941EA0241334A127A21
:101D700041EA0221314A527A41EA020000F086FD2E
:101D80003B4A03C29FED2F0B53EC102B384890EDCC
:101D9000000B51EC100B00F021FC354A03C227491F
:101DA000C97A264A927A41EA022000F06FFD314A50
:101DB00003C29FED240B53EC102B2E4890ED000B2B
:101DC00051EC100B00F00AFC2A4A03C21B49497B64
:101DD0001A4A127B41EA022000F058FD264A03C24B
:101DE000254890ED000B8DED040B224890ED000B83
:101DF0008DED020B1E4890ED000B8DED000B1B4886
:101E000090ED000B53EC102B1C4900E00BE0154843
:101E1000FEF75AFA1348FEF72FFB84B22246114907
:101E2000114800F018F940F22551024800F028F856
:101E300006B010BD00480040990200206903002050
:101E4000B80100200000000000005940B9E2D5D5DB
:101E5000C7BFB6C8A3BA252D352E3266206C75785B
:101E60000D0A0000C002002000100140C001002047
:101E7000C8010020D0010020D8010020FC2A000861
:101E800010B50022002340F66A14A14200D100BF21
:101E90000A1201249440A3B2DC43048010BD21B196
:101EA000828942F40052828104E082894DF6FF73F8
:101EB0001A408281704702460020B1F5007F00D1B0
:101EC00000BF13880B400BB1012000E000207047D9
:101ED00070B50246002400230025002040F66A1653
:101EE000B14200D100BFC1F3421501F01F0301262A
:101EF00006FA03F3012D02D19689334006E0022D44
:101F000002D1168A334001E0968A33400C12012632
:101F100006FA04F41688344013B10CB1012000E035
:101F2000002070BDF0B503460024002600250020E7
:101F300040F66A17B94200D100BF1846C1F34214F7
:101F400001F01F06012707FA06F5012C01D10C301C
:101F500004E0022C01D1103000E014301AB10768FF
:101F60002F43076002E00768AF430760F0BD000041
:101F70002DE9FF4705460E460024A14600BFA046B6
:101F8000B08900B100BF2C8A24F44054F088044387
:101F90002C82AC8941F20C608443B08831890843BB
:101FA000718908430443AC81AC8A24F44074B0893D
:101FB0000443AC826846FFF773FC2048854202D098
:101FC0001F48854202D1DDF80C9001E0DDF8089051
:101FD000A88900F4004040B109EBC90000EB0910EA
:101FE00031684900B0FBF1F707E009EBC90000EBED
:101FF000091031688900B0FBF1F76420B7FBF0F0FD
:1020000004012009642101FB1078A88900F4004034
:1020100040B1322000EBC800B0FBF1F000F0070047
:10202000044308E0322000EB08106421B0FBF1F01B
:1020300000F00F0004432C81BDE8FF870010014031
:102040000014014001468888C0F308007047C1F3BE
:102050000802828070472DE9F04107460D4616467A
:1020600000240CE0295D3846FFF7F1FF00BF802116
:102070003846FFF720FF0028F9D0601C84B2B44234
:10208000F0DBBDE8F081000010B59FED530B53EC81
:10209000102B534890ED000B51EC100B00F09EFC00
:1020A0000DD25048FEF7E8F984B222464D494E4819
:1020B000FFF7D1FF01204D490860FFF74BFB9FED73
:1020C0004C0B53EC102B4C4890ED000B51EC100BCB
:1020D00000F084FC0DD24948FEF7CEF984B22246C6
:1020E00046494148FFF7B7FF012040490860FFF724
:1020F0003DFB9FED430B53EC102B434890ED000B41
:1021000051EC100B00F06AFC0DD24048FEF7B4F918
:1021100084B222463D493448FFF79DFF01203349F0
:102120000860FFF72FFB9FED3A0B53EC102B3A485A
:1021300090ED000B51EC100B00F050FC0DD2374825
:10214000FEF79AF984B2224634492748FFF783FF05
:10215000012026490860FFF721FB9FED1F0B53EC80
:10216000102B1F4890ED000B51EC100B00F0A6FB5C
:1021700031D89FED1F0B53EC102B1F4890ED000B37
:1021800051EC100B00F09AFB25D89FED1D0B53EC82
:10219000102B1D4890ED000B51EC100B00F08EFB46
:1021A00019D89FED1B0B53EC102B1B4890ED000B27
:1021B00051EC100B00F082FB0DD800200B49086099
:1021C00001201749C1F8A4020849083108601549DF
:1021D0000860091D086010BD00000000008051402B
:1021E000B0010020E001002000100140A082424226
:1021F0000000000000005E40B80100201002002036
:102200000000000000804140C00100204402002086
:102210000000000000005440D00100206C020020AB
:1022200000804242B402424203B401984100009847
:1022300050EAC12018BF04204A0D18BF40F0010029
:1022400040F2FF72B2EB515F08BF40F0020001287C
:1022500008BF052002B0704730380A2801D201209B
:102260007047002070470000F0B501464FF4FA7542
:102270002E4691FBF6F391FBF6F706FB17140CB113
:102280001E4600E05E1E334600202BE014B198424B
:1022900000D12546154E3668F6084FF47A77B6FB1E
:1022A000F7F66E434FF0E0277E610026BE613E46A2
:1022B000366946F001063E6100BF4FF0E026326904
:1022C00002F001061EB102F48036002EF5D04FF068
:1022D000E026366926F001064FF0E0273E61002631
:1022E000BE61401C5E1CB042D0DBF0BD000000208F
:1022F000FFF7FCF9FFF760F8FFF7D8F9FFF724F9CB
:102300004FF4165000F050F84FF4165000F09CF8BF
:102310004FF4165000F0E8F833E0092219491A4842
:10232000FFF799FEC820FFF79FFF032217491848BF
:10233000FFF791FEC820FFF797FF032215491448C5
:10234000FFF789FEC820FFF78FFF1348007858B9C0
:10235000FFF79AFE1148FEF78FF884B222460F4924
:102360000F48FFF778FE08E00E48FEF785F884B2C4
:1023700022460C490A48FFF76EFE4FF4FA60FFF759
:1023800073FFCAE72801002000440040310100200B
:10239000004800403401002098010020670100201F
:1023A000001001403701002010B504460121084605
:1023B000FFF746FA4FF4C0601E490860022008711A
:1023C00000208871032048711B48FFF703F907229A
:1023D00009211948FFF746F907220A211648FFF795
:1023E00041F901211020FFF74BFA14480460002046
:1023F000124988810C20488100200881C88088808B
:102400000F48FFF7B5FD012240F225510C48FFF7B8
:1024100089FD25200B490870012048700220887032
:102420000120C8700846FFF7C5F901210448FFF7ED
:1024300036FD10BDA001002000000240B0020020C7
:1024400000100140A801002010B5044601210846F3
:10245000FFF7F6F902201F490871002088710C204F
:1024600008600020C871032048711B48FFF7B2F8CC
:10247000072202211848FFF7F5F807220321164822
:10248000FFF7F0F801214804FFF7EAF91348046068
:102490000020124988810C20488100200881C880D2
:1024A00088800F48FFF764FD012240F225510C4857
:1024B000FFF738FD26200B4908700120C8704870CE
:1024C000022088700846FFF775F901210448FFF7DC
:1024D000E6FC10BDA001002000000240B002002078
:1024E00000440040A801002010B588B00446012136
:1024F0000220FFF7A5F94FF44060069002208DF806
:102500001C0000208DF81E008DF81F0003208DF8A0
:102510001D0006A91E48FFF75DF807220A211C4886
:10252000FFF7A0F807220B211948FFF79BF80121BC
:102530008804FFF795F902940020ADF814000C20F0
:10254000ADF812000020ADF81000ADF80E00ADF8A7
:102550000C0002A90F48FFF70BFD012240F22551A4
:102560000C48FFF7DFFC27208DF8040001208DF8D0
:1025700007008DF8050002208DF8060001A8FFF77E
:1025800019F901210348FFF78AFC08B010BD0000CB
:10259000000402400048004010B500290AD0087825
:1025A000002807D005487844FEF7E4FA002801D057
:1025B000002010BD0248784410BD0000D205000084
:1025C000CA050000491058BFC1F140415B1058BF17
:1025D000C3F140438B42EFF3008070472DE9C041C7
:1025E00030B4DFF8A0C23CEA111418BF3CEA13145F
:1025F00000F0EC8081EA03051CEA111444EAD5746A
:1026000018BF1CEA131500F0C780A4EB05044FF0B7
:10261000004545EAC12145EAC32341EA505143EA56
:10262000525304F17F74994204F500344FEAC020FC
:102630004FEAC22208BF904200F09C804FEA136527
:102640000FF24016765D4FEA134506FB05F7C7F11A
:10265000807706FB07F74FEAD737A7FB0368764278
:10266000C8F58038A7FB06CE38BFA8F1010807FBE4
:1026700008E64FF0000EA6FB028CE6FB03CEDCF171
:10268000000CCEF1004E38BFAEF1010EA6FB0C5887
:102690004FF000074FF00005E6FB0E87A1FB08C6D0
:1026A000A0FB07CE16EB0E0645F10005E1FB076522
:1026B00015F1E04E7EBFA4F580345FEA46066D4119
:1026C00016F1800745F100054FEA17274FEA066625
:1026D00047EA0567A6F1DE46B6F1805F4FEA1525A9
:1026E0001FD9384624F0010C05EBC471BCF1FE6F14
:1026F00001EB0C1102D8F0BCBDE8008124425CBFA4
:1027000001F5801E9EEAC47F02D4F0BCBDE80081C2
:10271000244238D4F0BCA1F1C041BDE8004100F032
:1027200057B94FEAD22242EA43524FEAD323A7FBDA
:1027300002864FEAD02040EA415007FB03661EEABA
:102740000E0F4FEAD12105FB026658BFA6EB0056DB
:10275000B6EB00564FEA520E4EEAC37E18EB0E0E51
:1027600056EB530EBDD518EB02085E417F1C55F1A8
:102770000005B6E74FF480154FF000074FF0000654
:102780004FF00008ADE7F0BC4FF0000001F1C04190
:1027900001F00041BDE8008111EA0C1F0CEA13159D
:1027A00000D00CE013EA0C1F00F025804FF0000071
:1027B000F0BC81EA030101F00041BDE80081F0BCFA
:1027C000BDE8004181EA030100F002B9F0BCBDE8B8
:1027D000004170B500F0AEF8097EFC3E00F007B88D
:1027E00081EA03014FF0000001F00041704781EAE7
:1027F000030100F0EDB8F0BCBDE800414FF000006F
:1028000021497047FFFDFBF9F7F5F4F2F0EEEDEB2F
:10281000E9E8E6E4E3E1E0DEDDDBDAD8D7D5D4D3DE
:10282000D1D0CFCDCCCBCAC8C7C6C5C4C2C1C0BF2A
:10283000BEBDBCBBBAB9B8B7B6B5B4B3B2B1B0AF30
:10284000AEADACABAAA9A8A8A7A6A5A4A3A3A2A114
:10285000A09F9F9E9D9C9C9B9A99999897979695CF
:1028600095949393929191908F8F8E8E8D8C8C8B6B
:102870008B8A8989888887878685858484838382F3
:10288000828181800000FF070000F87F10F0004285
:1028900048BF4042B0FA80F310FA03F10AD0C3F106
:1028A0001D0303F580634FEA415002EB035202EB34
:1028B000D12170474FF000007047000051EA030C2F
:1028C00017D41CF5801F58BFBCF5801F00F106808F
:1028D000994218BF704708BF9042704707D711F55B
:1028E000801F58BF13F5801F19D499427047894241
:1028F00070471CF5801F08D5BCF5801FF7D58B42AB
:1029000018BF704708BF824270474FF4001C1CEB91
:10291000410F38BF1CEB430F01D28B42704770B59B
:1029200000F008F8922449004FF000514FF0805316
:10293000FFF748BE0EF1020E2EF0030E5EF8046B98
:10294000364205D4012A43EB030515F5001F12D8C2
:10295000012841EB010C1CF5001F0CD80ED14FEAE9
:10296000D17C15F5001F0CEB4C0C0CF1020C08BFD0
:102970004CEBD37C04E04FF0080C01E04FEAD37C31
:102980000CEB4C0526FA05F606F00706B6F1040C2A
:1029900006D20EEB860CBDE870404CF0010C60478F
:1029A000DFE80CF0090B02024FF000414FF000008D
:1029B000A1F5002170BD19461046012851EB010414
:1029C00018BFD4F5001484BF002001F0004170BD91
:1029D0000808A0F500114FEA3101704753EA010CD5
:1029E00017D41CF5801F58BFBCF5801F00F106806E
:1029F0008B4218BF704708BF8242704707D713F554
:102A0000801F58BF11F5801F19D48B4270479B421D
:102A100070471CF5801F08D5BCF5801FF7D599427B
:102A200018BF704708BF904270474FF4001C1CEB62
:102A3000430F38BF1CEB410F01D2994270470FB4CE
:102A40000CBC03BCFFF76BBF4FF04070E1EE100A07
:102A50007047FDF70CBE04000008000000000000F5
:102A6000000200010000100002400000000000A071
:102A70000000000005400000000000C80000000049
:102A80000C4000000000409C0000000019400000C5
:102A90000020BCBE0000000034400000BFC91B8EF7
:102AA00000000004B5400000504BCFD06607E2CFD5
:102AB000010000006C4100003E8251AADFEEA73405
:102AC00001000000D9420000DCB5A0E23A301F97B7
:102AD000FFFFFFFFB4450000FD25A0C8E9A3C14FDB
:102AE000FFFFFFFFFF3F000000000080000000002C
:102AF000FF3F00000000008000000000CEC2B6C80A
:102B0000A3BA252D352E326620A1E62020202020D4
:102B10002020202020202020C6F8D1B9A3BA252DBE
:102B2000352E32662070610D0ACAAAB6C8A3BA252E
:102B30002D352E3266202525202020202020202003
:102B40002020202020BAA3B0CEA3BA252D352E32C6
:102B500066206D0D0A0A0000942B0008000000207A
:102B6000B0020000C4010008582C0008B002002088
:102B700028070000280200081C0000004300000095
:102B8000F8FFFFFF0C0000000E0000000F00000027
:102B90002E0000005006007A030A000160090102BD
:102BA0000304060708090CA110013E01322101406F
:102BB00023D1CCCEEDC5A8B6C8B3ACB9FD3730A390
:102BC000ACC7EBBCECB2E9B2D6BFE2B0B2C8ABC79F
:102BD000E9BFF628520A304007B9E2D5D5C7BF3061
:102BE00020073132306C757834000518D7A2D2E254
:102BF000342007CEC2B6C8D6B56230053335A1E65B
:102C000064C008B0CAB1BDB5CEC22863CAAA2860E4
:102C100004383025576009B1A3B3D6B8C9D4EF87BB
:102C200071C03004FF01860800091079A551F6A58E
:102C300052F73D01000910CAD6B6AFC4A3CABD1BE6
:102C40000004110D0A00300319D7D43001470105E3
:082C5000BE78E1010000000064
:040000050800018965
:00000001FF
