:020000040800F2
:1000000068060020290200083102000833020008B7
:10001000350200083702000839020008000000001D
:100020000000000000000000000000003B0200088B
:100030003D020008000000003F02000841020008E5
:10004000430200084302000843020008430200087C
:100050004302000843020008DB02000843020008D4
:1000600041030008A70300080D040008430200082C
:10007000430200084302000843020008430200084C
:10008000430200084302000843020008430200083C
:10009000430200084302000843020008430200082C
:1000A000430200084302000843020008430200081C
:1000B000430200084302000843020008430200080C
:1000C00043020008430200084302000843020008FC
:1000D00043020008430200084302000843020008EC
:1000E00043020008430200084302000843020008DC
:1000F00043020008430200084302000843020008CC
:1001000043020008430200084302000843020008BB
:1001100043020008430200084302000843020008AB
:10012000430200084302000843020008430200089B
:10013000430200084302000843020008430200088B
:10014000430200084302000843020008430200087B
:10015000430200084302000843020008430200086B
:10016000430200084302000843020008430200085B
:10017000430200084302000843020008430200084B
:10018000430200084302000800F002F800F03CF8C7
:100190000AA090E8000C82448344AAF10107DA45E2
:1001A00001D100F031F8AFF2090EBAE80F0013F0F8
:1001B000010F18BFFB1A43F0010318476409000040
:1001C00084090000103A24BF78C878C1FAD85207D1
:1001D00024BF30C830C144BF04680C6070470000C1
:1001E0000023002400250026103A28BF78C1FBD840
:1001F000520728BF30C148BF0B6070471FB500F0E1
:1002000089FC1FBD10B510BD00F031F81146FFF795
:10021000F5FF00F01FFC00F04FF803B4FFF7F2FF0A
:1002200003BC00F053F80000094880470948004724
:10023000FEE7FEE7FEE7FEE7FEE7FEE7FEE7FEE796
:10024000FEE7FEE704480549054A064B70470000F3
:1002500035080008890100086800002068060020B1
:10026000680200206802002070477047704775469A
:1002700000F028F8AE4605006946534620F0070016
:10028000854618B020B5FFF7DDFFBDE820404FF0F0
:1002900000064FF000074FF000084FF0000B21F070
:1002A0000701AC46ACE8C009ACE8C009ACE8C0093D
:1002B000ACE8C0098D4670470446AFF30080204685
:1002C000FFF7ABFF004870470800002001491820E5
:1002D000ABBEFEE726000200704710B5012000F01B
:1002E000CFF8012804D100F02BFB012000F0C2F868
:1002F00010BD0EB50121880300F0F6F90021084673
:1003000000F002FA0120019000208DF808000C2076
:100310008DF8090001208DF80A0001A800F0BCF852
:1003200006208DF8000000208DF8010002208DF8D5
:10033000020001208DF80300684600F089F90EBD27
:1003400010B5042000F09CF8012804D100F04EFB09
:10035000042000F08FF810BD0EB50121880300F0D5
:10036000C3F90221042000F0CFF9042001900020FD
:100370008DF808000C208DF8090001208DF80A0086
:1003800001A800F089F808208DF8000000208DF801
:10039000010002208DF8020001208DF8030068465C
:1003A00000F056F90EBD10B5082000F069F80128DC
:1003B00004D100F075FB082000F05CF810BD0EB50C
:1003C0000121880300F090F90321042000F09CF93A
:1003D0000820019000208DF808000C208DF80900FD
:1003E00001208DF80A0001A800F056F809208DF8C8
:1003F000000000208DF8010002208DF8020001208D
:100400008DF80300684600F023F90EBD10B51020EA
:1004100000F036F8012804D100F040FA102000F076
:1004200029F810BD0EB50121880300F05DF9042103
:10043000084600F069F91020019000208DF80800AE
:100440000C208DF8090001208DF80A0001A800F0A9
:1004500023F80A208DF8000000208DF8010002200A
:100460008DF8020001208DF80300684600F0F0F8D6
:100470000EBD00000149086070470000143C0140B7
:1004800001460020034A12680A400AB1012000E038
:1004900000207047143C0140002123498279002A42
:1004A0003AD00A46126803689A430B461A600A1D3E
:1004B000126803689A430B1D1A60027911440A6896
:1004C00003681A430A60184A0832126803689A439C
:1004D000154B08331A601A1D126803689A43124BB1
:1004E0000C331A604279102A0ED11A1F1268036861
:1004F0001A430D4B08331A601A1D126803681A4319
:10050000094B0C331A600DE00749427911440A681F
:1005100003681A430A6005E0027911440A68036817
:100520009A430A6070470000003C0140F0B50A465B
:1005300000210023002400BF3DE0012505FA01F35E
:10054000156805EA03049C4234D105684F00032670
:10055000BE40B543056015794E00B5400668354389
:1005600005601579012D02D01579022D16D1856807
:100570004F000326BE40B543856055794E00B54017
:10058000866835438560456801268E40B5434560E1
:10059000456896798E40B6B235434560C5684F00D0
:1005A0000326BE40B543C560D5794E00B540C66848
:1005B0003543C560491C1029BFD3F0BD4183704746
:1005C0000183704710B50121112000F07DF81D2036
:1005D0000749086000200871032048710020C87195
:1005E0000448FFF7A3FF02490348FFF79FFF10BD30
:1005F00000000020001002400000024010B5012160
:10060000302000F061F84FF4CC400E490860012022
:10061000087100208871032048710020C8710A48C1
:10062000FFF784FF07490948FFF780FF4FF4C061D7
:100630000548FFF7C5FF4FF4C0410448FFF7C0FF6E
:1006400010BD000000000020001402400010024015
:1006500070B5002100230F22C4781CB3174C246806
:1006600004F4E064C4F5E064C4F30721C1F10404B8
:10067000E3B20A4144789C40E1B2847814402143BB
:100680000C07210E0E4C05786155047804F01F0507
:100690000124AC4005786D11AD0005F1E025C5F8E9
:1006A000004109E0047804F01F050124AC40054D29
:1006B0000678761145F8264070BD00000CED00E08C
:1006C00000E400E080E100E029B1064A126802433C
:1006D000044B1A6004E0034A12688243014B1A601B
:1006E000704700003038024029B1064A12680243C0
:1006F000044B1A6004E0034A12688243014B1A60FB
:10070000704700004438024030B500228B071C0FB0
:100710000F2303FA04F20B4B8C1053F8243093434D
:10072000084C8D1044F8253023468C1053F82430A3
:100730008C07240F00FA04F42343024C8D1044F874
:10074000253030BD083801400CB5002001900090E4
:100750003448006840F480303249086000BF3148B6
:10076000006800F4003000900198401C019000984F
:1007700018B90198B0F5A04FF1D12A48006800F4EB
:10078000003010B10120009001E00020009000989E
:10079000012846D123484030006840F0805021496C
:1007A000403108602048006840F440401E4908601D
:1007B0001C48083000681B4908310860084600687A
:1007C00040F4004008600846006840F4A05008600B
:1007D0001648091F0860081F006840F08070091F54
:1007E000086000BF0F48006800F000700028F9D0D2
:1007F00040F205700E4908600A480830006820F091
:1008000003000849083108600846006840F002000B
:10081000086000BF03480830006800F00C0008289A
:10082000F8D10CBD00380240007000400854400769
:10083000003C024010B51548006840F470001349B0
:1008400008601348006840F001001149086000206A
:100850000F49083108600E4800680E4908400C49ED
:1008600008600D48091D0860081F006820F48020FA
:10087000091F0860002006490C310860FFF764FF7B
:100880004FF0006001498039086010BD88ED00E03C
:1008900000380240FFFFF6FE1030002410B54FF480
:1008A00000711648FFF78AFE4FF480611348FFF786
:1008B00085FE4FF400511248FFF780FE4FF480414F
:1008C0000F48FFF77BFE642000F01CF84FF4007126
:1008D0000A48FFF775FE4FF480610848FFF770FE85
:1008E0004FF400510648FFF76BFE4FF48041044877
:1008F000FFF766FE642000F005F810BD001402400A
:100900000010024016E000214FF0E022116145F294
:1009100008215161002191610121116100BF4FF057
:10092000E021096901F480310029F8D000214FF05D
:10093000E02211610100A0F10100E4D17047000044
:100940002DE9F047DFF89C90DFF89C804FF0844160
:1009500001EB491000F1240401EB491000F12805D6
:1009600001EB481000F1340601EB481000F13807A4
:10097000206880F0010020606420FFF7C3FF20683A
:1009800080F0010020606420FFF7BCFF286880F041
:10099000010028606420FFF7B5FF286880F001009F
:1009A00028606420FFF7AEFF306880F001003060FF
:1009B0006420FFF7A7FF306880F0010030606420FA
:1009C000FFF7A0FF386880F0010038606420FFF76F
:1009D00099FF386880F0010038606420FFF792FFCB
:1009E000BDE8F087141402401410024010B5002036
:1009F000144908606420FFF785FF01201249C1F8FF
:100A0000A40200200F49091D08606420FFF77AFF47
:100A100001200C49091D086000200C490860642071
:100A2000FFF770FF01200949086000200849C1F85C
:100A3000B8026420FFF766FF01200549C1F8B8023B
:100A400010BD0000A482424200804242B4024242F1
:100A5000000042424FF400710F48FFF7B1FD4FF420
:100A600080610D48FFF7ACFD4FF400510B48FFF7D4
:100A7000A7FD4FF480410948FFF7A2FDFFF7BEFD37
:100A8000FFF7A0FDFFF735FCFFF766FCFFF797FCCB
:100A9000FFF7C8FC00BFFEE7001402400010024050
:100AA00010B54FF400711948FFF788FD4FF48061CD
:100AB0001648FFF783FD6420FFF724FF4FF4007111
:100AC0001248FFF77DFD4FF480611048FFF778FD75
:100AD0006420FFF717FF4FF400510D48FFF76EFD3C
:100AE0004FF480410A48FFF769FD6420FFF70AFFD1
:100AF0004FF400510648FFF763FD4FF4804104486E
:100B0000FFF75EFD6420FFF7FDFE10BD00140240FC
:100B1000001002404FF04070E1EE100A70470000F4
:100B2000400B00080000002008000000C40100087D
:100B3000480B00080800002060060000E0010008E3
:080B40000000000000000000AD
:040000050800018965
:00000001FF
