:020000040800F2
:10000000A00600202902000831020008330200087F
:10001000350200083702000839020008000000001D
:100020000000000000000000000000003B0200088B
:100030003D020008000000003F02000841020008E5
:10004000430200084302000843020008430200087C
:10005000430200084302000843020008430200086C
:10006000430200084302000843020008430200085C
:10007000430200084302000843020008430200084C
:10008000430200084302000843020008430200083C
:10009000430200084302000843020008430200082C
:1000A000430200084302000843020008430200081C
:1000B000430200084302000843020008430200080C
:1000C00043020008430200084302000843020008FC
:1000D000430200085D0700084302000843020008CD
:1000E00043020008430200084302000843020008DC
:1000F00043020008430200084302000843020008CC
:1001000043020008430200084302000843020008BB
:1001100043020008430200084302000843020008AB
:10012000430200084302000843020008430200089B
:10013000430200084302000843020008430200088B
:10014000430200084302000843020008430200087B
:10015000430200084302000843020008430200086B
:10016000430200084302000843020008430200085B
:10017000430200084302000843020008430200084B
:10018000430200084302000800F002F800F03CF8C7
:100190000AA090E8000C82448344AAF10107DA45E2
:1001A00001D100F031F8AFF2090EBAE80F0013F0F8
:1001B000010F18BFFB1A43F0010318479409000010
:1001C000B4090000103A24BF78C878C1FAD85207A1
:1001D00024BF30C830C144BF04680C6070470000C1
:1001E0000023002400250026103A28BF78C1FBD840
:1001F000520728BF30C148BF0B6070471FB500F0E1
:10020000A1FC1FBD10B510BD00F031F81146FFF77D
:10021000F5FF00F021FC00F04FF803B4FFF7F2FF08
:1002200003BC00F053F80000094880470948004724
:10023000FEE7FEE7FEE7FEE7FEE7FEE7FEE7FEE796
:10024000FEE7FEE704480549054A064B70470000F3
:10025000F506000889010008A0000020A006002083
:10026000A0020020A002002070477047704775462A
:1002700000F028F8AE4605006946534620F0070016
:10028000854618B020B5FFF7DDFFBDE820404FF0F0
:1002900000064FF000074FF000084FF0000B21F070
:1002A0000701AC46ACE8C009ACE8C009ACE8C0093D
:1002B000ACE8C0098D4670470446AFF30080204685
:1002C000FFF7ABFF004870474000002001491820AD
:1002D000ABBEFEE7260002007047F0B50A460021DB
:1002E0000023002400BF3DE0012505FA01F3156855
:1002F00005EA03049C4234D105684F000326BE4042
:10030000B543056015794E00B54006683543056074
:100310001579012D02D01579022D16D185684F006F
:100320000326BE40B543856055794E00B5408668CA
:1003300035438560456801268E40B5434560456874
:1003400096798E40B6B235434560C5684F000326A6
:10035000BE40B543C560D5794E00B540C66835434B
:10036000C560491C1029BFD3F0BDF0B5002300249F
:100370004D07ED0E02FA05F3CE1000F1200555F8F9
:1003800026504E07F70E0F26BE40B543CF1000F1A2
:10039000200646F82750CE1000F1200555F82650CB
:1003A00045EA0304CE1000F1200545F82640F0BDD3
:1003B0000246002013690B400BB1012000E0002031
:1003C000704701837047000010B50121112000F033
:1003D00087F81D2007490860002008710320487134
:1003E0000020C8710448FFF778FF02490348FFF76F
:1003F00074FF10BD240000200010024000000240E5
:1004000010B50121302000F06BF84FF4CC401349B7
:1004100008600120087100208871032048710020C5
:10042000C8710F48FFF759FF0C490E48FFF755FFF9
:100430004FF400710A48FFF7C4FF4FF48061084889
:10044000FFF7BFFF4FF400510648FFF7BAFF4FF424
:1004500080410448FFF7B5FF10BD000024000020D4
:10046000001402400010024070B5002100230F224A
:10047000C4781CB3174C246804F4E064C4F5E06449
:10048000C4F30721C1F10404E3B20A4144789C405B
:10049000E1B28478144021430C07210E0E4C0578FC
:1004A0006155047804F01F050124AC4005786D11F6
:1004B000AD0005F1E025C5F8004109E0047804F03D
:1004C0001F050124AC40054D0678761145F82640FD
:1004D00070BD00000CED00E000E400E080E100E011
:1004E00029B1064A12680243044B1A6004E0034A29
:1004F00012688243014B1A60704700003038024096
:1005000029B1064A12680243044B1A6004E0034A08
:1005100012688243014B1A60704700004438024061
:10052000F0B5002100220024022500260223324FCC
:100530003F6807F00C0121B1042905D0082937D103
:1005400005E02E4F076036E02D4F076033E02A4F5D
:100550003F1F3F68C7F38056274F3F1F3F6807F094
:100560003F036EB1264FB7FBF3F7DFF88CC0ACF159
:10057000040CDCF800C0CCF3881C07FB0CF40CE086
:100580001E4FB7FBF3F7DFF870C0ACF1040CDCF8DA
:1005900000C0CCF3881C07FB0CF4174F3F1F3F68CB
:1005A000C7F301477F1C7D00B4FBF5F7076002E04D
:1005B000124F076000BF00BF0F4F3F6807F0F00108
:1005C0000909104F7A5C0768D74047600A4F3F68B7
:1005D00007F4E051890A0B4F7A5C4768D74087607F
:1005E000054F3F6807F46041490B064F7A5C476846
:1005F000D740C760F0BD0000083802400024F40076
:1006000000127A00140000200CB500200190009028
:100610003448006840F480303249086000BF3148F7
:10062000006800F4003000900198401C0190009890
:1006300018B90198B0F5A04FF1D12A48006800F42C
:10064000003010B10120009001E0002000900098DF
:10065000012846D123484030006840F080502149AD
:10066000403108602048006840F440401E4908605E
:100670001C48083000681B490831086008460068BB
:1006800040F4004008600846006840F4A05008604C
:100690001648091F0860081F006840F08070091F95
:1006A000086000BF0F48006800F000700028F9D013
:1006B00040F205700E4908600A480830006820F0D2
:1006C00003000849083108600846006840F002004D
:1006D000086000BF03480830006800F00C000828DC
:1006E000F8D10CBD003802400070004008544007AB
:1006F000003C024010B51548006840F470001349F2
:1007000008601348006840F00100114908600020AB
:100710000F49083108600E4800680E4908400C492E
:1007200008600D48091D0860081F006820F480203B
:10073000091F0860002006490C310860FFF764FFBC
:100740004FF0006001498039086010BD88ED00E07D
:1007500000380240FFFFF6FE1030002410B540F2D2
:100760002551144800F058F8012822D1114800F012
:100770000DF90446412C0AD100200F4908600F49A9
:10078000C1F8A8020E4908600E49C1F8B802422C0F
:100790000AD10120084908600849C1F8A80208499F
:1007A00008600849C1F8B80240F22551014800F03C
:1007B0000BF810BD00100140A4824242008042426A
:1007C000B40242420000424210B50022002340F62B
:1007D0006A14A14200D100BF0A1201249440A3B2BE
:1007E000DC43048010BD21B1828942F40052828131
:1007F00004E082894DF6FF731A40828170470246F9
:100800000020B1F5007F00D100BF13880B400BB171
:10081000012000E00020704770B50246002400234C
:100820000025002040F66A16B14200D100BFC1F396
:10083000421501F01F03012606FA03F3012D02D130
:100840009689334006E0022D02D1168A334001E03A
:10085000968A33400C12012606FA04F416883440B6
:1008600013B10CB1012000E0002070BDF0B50346CB
:10087000002400260025002040F66A17B94200D166
:1008800000BF1846C1F3421401F01F06012707FA02
:1008900006F5012C01D10C3004E0022C01D11030FE
:1008A00000E014301AB107682F43076002E00768C0
:1008B000AF430760F0BD00002DE9FF4705460E4637
:1008C0000024A14600BFA046B08900B100BF2C8A19
:1008D00024F44054F08804432C82AC8941F20C602B
:1008E0008443B08831890843718908430443AC814B
:1008F000AC8A24F44074B0890443AC826846FFF7A4
:100900000FFE2048854202D01F48854202D1DDF803
:100910000C9001E0DDF80890A88900F4004040B197
:1009200009EBC90000EB091031684900B0FBF1F791
:1009300007E009EBC90000EB091031688900B0FB42
:10094000F1F76420B7FBF0F004012009642101FBFA
:100950001078A88900F4004040B1322000EBC800B4
:10096000B0FBF1F000F00700044308E0322000EB98
:1009700008106421B0FBF1F000F00F0004432C815B
:10098000BDE8FF870010014000140140014688883F
:10099000C0F308007047C1F30802828070472DE958
:1009A000F04107460D46164600240CE0295D384606
:1009B000FFF7F1FF00BF80213846FFF720FF002836
:1009C000F9D0601C84B2B442F0DBBDE8F0810000D5
:1009D000F0B501464FF4FA752E4691FBF6F391FB04
:1009E000F6F706FB17140CB11E4600E05E1E3346F8
:1009F00000202BE014B1984200D12546154E3668F0
:100A0000F6084FF47A77B6FBF7F66E434FF0E0271F
:100A10007E610026BE613E46366946F001063E61B3
:100A200000BF4FF0E026326902F001061EB102F469
:100A30008036002EF5D04FF0E026366926F001060C
:100A40004FF0E0273E610026BE61401C5E1CB042B4
:100A5000D0DBF0BD000000204FF4165000F01AF873
:100A6000FFF7CEFCFFF7B0FC0DE001210648FFF7D1
:100A70009FFC40B9142205490548FFF790FF4FF449
:100A80007A70FFF7A5FFF0E7000002402C0000207D
:100A90000010014010B588B0044601210846FFF758
:100AA0001FFD02208DF81C0000208DF81E004FF461
:100AB000C060069000208DF81F0003208DF81D00F7
:100AC00006A91E48FFF709FC072209211B48FFF76A
:100AD0004CFC07220A211948FFF747FC012110208E
:100AE000FFF70EFD02940020ADF814000C20ADF8C5
:100AF00012000020ADF81000ADF80E00ADF80C00AB
:100B000002A90F48FFF7D8FE012240F225510C48F8
:100B1000FFF7ACFE25208DF8040001208DF80700BA
:100B20008DF8050002208DF8060001A8FFF79CFC57
:100B300001210348FFF757FE08B010BD0000024036
:100B4000001001404FF04070E1EE100A70470000C5
:100B5000700B00080000002040000000C4010008E5
:100B6000B00B00084000002060060000E001000813
:100B7000007A030A000000000000000001020304E4
:100B80000607080900000000010203040102030433
:100B900006070809000000000000000068656C6C92
:100BA0006F2C61726520796F75206F6B3F0D0A00A5
:040000050800018965
:00000001FF
