:020000040800F2
:10000000800600202902000831020008330200089F
:10001000350200083702000839020008000000001D
:100020000000000000000000000000003B0200088B
:100030003D020008000000003F02000841020008E5
:10004000430200084302000843020008430200087C
:10005000430200084302000843020008430200086C
:10006000430200084302000843020008430200085C
:10007000430200084302000843020008430200084C
:10008000430200084302000843020008430200083C
:10009000430200084302000843020008430200082C
:1000A000430200084302000843020008430200081C
:1000B000430200084302000843020008430200080C
:1000C00043020008430200084302000843020008FC
:1000D00043020008430200084302000843020008EC
:1000E00043020008430200084302000843020008DC
:1000F00043020008430200084302000843020008CC
:1001000043020008430200084302000843020008BB
:1001100043020008430200084302000843020008AB
:10012000430200084302000843020008430200089B
:10013000430200084302000843020008430200088B
:10014000430200084302000843020008430200087B
:10015000430200084302000843020008430200086B
:10016000430200084302000843020008430200085B
:10017000430200084302000843020008430200084B
:10018000430200084302000800F002F800F03CF8C7
:100190000AA090E8000C82448344AAF10107DA45E2
:1001A00001D100F031F8AFF2090EBAE80F0013F0F8
:1001B000010F18BFFB1A43F001031847EC040000BD
:1001C0000C050000103A24BF78C878C1FAD852074D
:1001D00024BF30C830C144BF04680C6070470000C1
:1001E0000023002400250026103A28BF78C1FBD840
:1001F000520728BF30C148BF0B6070471FB500F0E1
:100200004DFA1FBD10B510BD00F031F81146FFF7D3
:10021000F5FF00F027FA00F04FF803B4FFF7F2FF04
:1002200003BC00F053F80000094880470948004724
:10023000FEE7FEE7FEE7FEE7FEE7FEE7FEE7FEE796
:10024000FEE7FEE704480549054A064B70470000F3
:100250008104000889010008800000208006002039
:10026000800200208002002070477047704775466A
:1002700000F028F8AE4605006946534620F0070016
:10028000854618B020B5FFF7DDFFBDE820404FF0F0
:1002900000064FF000074FF000084FF0000B21F070
:1002A0000701AC46ACE8C009ACE8C009ACE8C0093D
:1002B000ACE8C0098D4670470446AFF30080204685
:1002C000FFF7ABFF004870471C00002001491820D1
:1002D000ABBEFEE7260002007047F0B50A460021DB
:1002E0000023002400BF3DE0012505FA01F3156855
:1002F00005EA03049C4234D105684F000326BE4042
:10030000B543056015794E00B54006683543056074
:100310001579012D02D01579022D16D185684F006F
:100320000326BE40B543856055794E00B5408668CA
:1003300035438560456801268E40B5434560456874
:1003400096798E40B6B235434560C5684F000326A6
:10035000BE40B543C560D5794E00B540C66835434B
:10036000C560491C1029BFD3F0BD4183704701838C
:100370007047000029B1064A12680243044B1A6014
:1003800004E0034A12688243014B1A607047000080
:10039000303802400CB500200190009034480068CD
:1003A00040F480303249086000BF3148006800F4F2
:1003B000003000900198401C0190009818B90198F5
:1003C000B0F5A04FF1D12A48006800F4003010B118
:1003D0000120009001E0002000900098012846D103
:1003E00023484030006840F0805021494031086087
:1003F0002048006840F440401E4908601C4808300E
:1004000000681B49083108600846006840F4004055
:1004100008600846006840F4A05008601648091FAC
:100420000860081F006840F08070091F086000BF66
:100430000F48006800F000700028F9D040F2057005
:100440000E4908600A480830006820F00300084997
:10045000083108600846006840F00200086000BFEC
:1004600003480830006800F00C000828F8D10CBDE3
:10047000003802400070004008544007003C024031
:1004800010B51548006840F470001349086013481F
:10049000006840F001001149086000200F49083150
:1004A00008600E4800680E4908400C4908600D4875
:1004B000091D0860081F006820F48020091F0860DB
:1004C000002006490C310860FFF764FF4FF0006020
:1004D00001498039086010BD88ED00E00038024015
:1004E000FFFFF6FE1030002410B5044604F00100B2
:1004F00028B14FF400711A48FFF739FF04E04FF4B8
:1005000000711748FFF731FF04F0020028B14FF4E3
:1005100080611348FFF72BFF04E04FF4806110481F
:10052000FFF723FF04F0040028B14FF400510D48F9
:10053000FFF71DFF04E04FF400510A48FFF715FFD5
:1005400004F0080028B14FF480410648FFF70FFF80
:1005500004E04FF480410348FFF707FF10BD00009F
:100560000014024000100240F0B501464FF4FA7545
:100570002E4691FBF6F391FBF6F706FB17140CB130
:100580001E4600E05E1E334600202BE014B1984268
:1005900000D12546154E3668F6084FF47A77B6FB3B
:1005A000F7F66E434FF0E0277E610026BE613E46BF
:1005B000366946F001063E6100BF4FF0E026326921
:1005C00002F001061EB102F48036002EF5D04FF085
:1005D000E026366926F001064FF0E0273E6100264E
:1005E000BE61401C5E1CB042D0DBF0BD00000020AC
:1005F0001CB501213020FFF7BDFE01208DF804005D
:1006000000208DF806004FF4C060009000208DF8A7
:10061000070002208DF8050069461048FFF75DFECF
:1006200001208DF8040000208DF806004FF4C04032
:10063000009000208DF8070002208DF80500694623
:100640000748FFF74AFE4FF4C0610448FFF78FFEEA
:100650004FF4C0410248FFF78AFE1CBD001402405F
:1006600000100240FFF7C4FF12E00A48017800784A
:10067000401C084A1070062091FBF0F200FB12109B
:1006800005490C5C2046FFF72FFFC820FFF76CFFE1
:10069000EBE700001A000020140000204FF040702B
:1006A000E1EE100A70470000C806000800000020B4
:1006B0001C000000C4010008E40600081C00002023
:1006C00064060000E0010008007A030A0000000050
:1006D0000000000001020304060708090E0D0B07C5
:0406E0000B0D0000FE
:040000050800018965
:00000001FF
