:020000040800F2
:10000000E006002031020008390200083B02000827
:100010003D0200083F020008410200080000000005
:100020000000000000000000000000004302000883
:1000300045020008000000004702000849020008CD
:100040004B0200084B0200084B0200084B0200085C
:100050004B0200084B0200084B0200084B0200084C
:100060004B0200084B0200084B0200084B0200083C
:100070004B0200084B0200084B0200084B0200082C
:100080004B0200084B0200084B0200084B0200081C
:100090004B0200084B0200084B0200084B0200080C
:1000A0004B0200084B0200084B0200084B020008FC
:1000B0004B0200084B0200084B0200084B020008EC
:1000C0004B0200084B0200084B0200084B020008DC
:1000D0004B020008A9070008D90700089D0800087E
:1000E0004B0200084B0200084B0200084B020008BC
:1000F0004B0200084B0200084B0200084B020008AC
:100100004B0200084B0200084B0200084B0200089B
:100110004B0200084B0200084B0200084B0200088B
:100120004B0200084B0200084B0200084B0200087B
:100130004B0200084B0200084B0200084B0200086B
:100140004B0200084B0200084B0200084B0200085B
:100150004B0200084B0200084B0200084B0200084B
:100160004B0200084B0200084B0200084B0200083B
:100170004B0200084B0200084B0200084B0200082B
:100180004B0200084B02000800F002F800F041F8B2
:100190000AA090E8000C82448344AAF10107DA45E2
:1001A00001D100F036F8AFF2090EBAE80F0013F0F3
:1001B000010F18BFFB1A43F0010318475009000054
:1001C00070090000103A24BF78C878C1FAD85207E5
:1001D00024BF30C830C144BF04680C6070470000C1
:1001E0000023002400250026103A28BF78C1FBD840
:1001F000520728BF30C148BF0B607047642900F028
:100200007F80002070471FB500F07AFC1FBD10B53D
:1002100010BD00F04AF91146FFF7F5FF00F058FC59
:1002200000F068F903B4FFF7F2FF03BC00F06CF9CB
:100230000948804709480047FEE7FEE7FEE7FEE77A
:10024000FEE7FEE7FEE7FEE7FEE7FEE704480549B6
:10025000054A064B70470000410700088901000865
:10026000E0000020E0060020E0020020E002002084
:100270000FB41CB5074B06AA7B446946009005984D
:1002800000F0FBF80020694600F00AF91CBC5DF89C
:1002900014FB0000250200002DE9F0410E46044643
:1002A000002020622046E168884730B3252805D029
:1002B000D4E901219047206A401CF2E7E16820461A
:1002C00000278847050018D0A5F14100192802D859
:1002D00020354FF400673246294620462760FFF755
:1002E0008DFF40B1012804D0F61D26F00706083620
:1002F000D8E7361DD6E72846DAE7206ABDE8F08160
:100300002DE9F0410646002410687529314616A5EE
:1003100010D0AFF30080002802DA404213A507E0B6
:1003200031688A0701D512A502E0490704D511A555
:10033000012401E0AFF3008000210A2206F1240726
:1003400009E0B0FBF2FCB0FBF2F302FB1C00303022
:1003500078541846491C0028F3D123462A463046D3
:10036000BDE8F04100F02AB8000000002D000000B8
:100370002B0000002000000010B5431C02E010F824
:10038000011B71B18107FAD14FF0013202C88C1AFA
:100390008C4314EAC211F9D0C01A0A0603D0C01E59
:1003A00010BDC01A10BD0A0401D0801E10BD090284
:1003B000FCD0401E10BD7047704770472DE9F047D4
:1003C0000D4699469246044600F1240801688806C5
:1003D00004D5E06921F01001216000E00120A8426D
:1003E00001DD471B00E00027A1697A1902EB090033
:1003F000081AA0612078C00602D42046AFF300801E
:10040000002608E0D4E901211AF806009047206A86
:10041000401C761C20624E45F4DB2078C0060AD5CD
:100420002046AFF3008006E0D4E901213020904758
:10043000206A401C2062381EA7F10107F4DC07E0A7
:10044000D4E9012118F805009047206A401C206279
:10045000281EA5F10105F3DC2046AFF300802078CB
:10046000000602D50220BDE8F0870120FBE700006E
:1004700001694A1C02610878704700B58FB0CDE968
:1004800001310021059105497944CDE90310114658
:100490006846FFF701FF0FB000BD0000E5FFFFFF5A
:1004A0000A6802F8010B0A607047754600F028F8E8
:1004B000AE4605006946534620F00700854618B051
:1004C00020B5FFF7C3FEBDE820404FF000064FF017
:1004D00000074FF000084FF0000B21F00701AC4679
:1004E000ACE8C009ACE8C009ACE8C009ACE8C00998
:1004F0008D4670470446AFF300802046FFF792FE1A
:10050000004870477C00002001491820ABBEFEE780
:10051000260002007047F0B50A460021002300249F
:1005200000BF3DE0012505FA01F3156805EA030463
:100530009C4234D105684F000326BE40B543056098
:1005400015794E00B5400668354305601579012DD3
:1005500002D01579022D16D185684F000326BE40C2
:10056000B543856055794E00B54086683543856052
:10057000456801268E40B5434560456896798E40B2
:10058000B6B235434560C5684F000326BE40B5434B
:10059000C560D5794E00B540C6683543C560491C75
:1005A0001029BFD3F0BD418370470183704700001D
:1005B00010B50121302000F02FF84FF4CC40134942
:1005C0000860012008710020887103204871002014
:1005D000C8710F48FFF79FFF0C490E48FFF79BFFBC
:1005E0004FF400710A48FFF7E0FF4FF480610848BC
:1005F000FFF7DBFF4FF400510648FFF7D6FF4FF43B
:1006000080410448FFF7D1FF10BD00001C0000200E
:10061000001402400010024029B1064A1268024349
:10062000044B1A6004E0034A12688243014B1A60CB
:10063000704700003038024010B50346002005E046
:100640004C1E944202DD9C5C0444E0B28A42F7DB1B
:1006500010BD00000CB500200190009034480068E7
:1006600040F480303249086000BF3148006800F42F
:10067000003000900198401C0190009818B9019832
:10068000B0F5A04FF1D12A48006800F4003010B155
:100690000120009001E0002000900098012846D140
:1006A00023484030006840F08050214940310860C4
:1006B0002048006840F440401E4908601C4808304B
:1006C00000681B49083108600846006840F4004093
:1006D00008600846006840F4A05008601648091FEA
:1006E0000860081F006840F08070091F086000BFA4
:1006F0000F48006800F000700028F9D040F2057043
:100700000E4908600A480830006820F003000849D4
:10071000083108600846006840F00200086000BF29
:1007200003480830006800F00C000828F8D10CBD20
:10073000003802400070004008544007003C02406E
:1007400010B51548006840F470001349086013485C
:10075000006840F001001149086000200F4908318D
:1007600008600E4800680E4908400C4908600D48B2
:10077000091D0860081F006820F48020091F086018
:10078000002006490C310860FFF764FF4FF000605D
:1007900001498039086010BD88ED00E00038024052
:1007A000FFFFF6FE1030002410B540F22551084836
:1007B00000F0FEF8012809D1054800F023F90549A9
:1007C000087040F22551024800F0D6F810BD000034
:1007D000001001402C00002010B540F225512348A4
:1007E00000F0E6F8012840D141022148FFF7DBFE86
:1007F0001E4800F007F9C1B21E4802780078401C7C
:100800001C4B18701C4881540078FF2802D000202F
:100810001946087017480078092821D10020154989
:10082000087009211448FFF707FF1349097A884225
:1008300007D11148C0781049897840EA01200F4952
:1008400008600E480EA102681248FFF711FD11481A
:10085000FFF792FD84B222460E490F4800F0DBF804
:1008600040F22551014800F087F810BD00440040D7
:10087000001402402D000020540000202800002019
:100880007468652076616C75652069732025640D38
:100890000A000000340000200010014010B540F2B2
:1008A0002551274800F084F8012848D14102254805
:1008B000FFF779FE224800F0A5F8C1B2224802787D
:1008C0000078401C204B18702048815400785A282A
:1008D00003D11E4840785A2802D000201A490870D7
:1008E0001A48C0781A49087000201749087017483C
:1008F000807818490870154800790006134949792D
:1009000040EA01401149897940EA01200F49C9793B
:10091000084311490860084610A102681448FFF70F
:10092000A7FC1348FFF728FD84B22246104911485E
:1009300000F071F840F22551014800F01DF810BD9B
:1009400000480040001402402E0000205D000020FE
:100950003100002030000020240000207468652051
:1009600074656D702069732025640D0A0000000015
:10097000340000200010014010B50022002340F692
:100980006A14A14200D100BF0A1201249440A3B20C
:10099000DC43048010BD02460020B1F5007F00D189
:1009A00000BF13880B400BB1012000E0002070470E
:1009B00070B50246002400230025002040F66A1688
:1009C000B14200D100BFC1F3421501F01F0301265F
:1009D00006FA03F3012D02D19689334006E0022D79
:1009E00002D1168A334001E0968A33400C12012668
:1009F00006FA04F41688344013B10CB1012000E06B
:100A0000002070BD01468888C0F308007047C1F31C
:100A10000802828070472DE9F04107460D461646D0
:100A200000240CE0295D3846FFF7F1FF00BF80216C
:100A30003846FFF7B0FF0028F9D0601C84B2B442FA
:100A4000F0DBBDE8F0810000F0B501464FF4FA7527
:100A50002E4691FBF6F391FBF6F706FB17140CB14B
:100A60001E4600E05E1E334600202BE014B1984283
:100A700000D12546154E3668F6084FF47A77B6FB56
:100A8000F7F66E434FF0E0277E610026BE613E46DA
:100A9000366946F001063E6100BF4FF0E02632693C
:100AA00002F001061EB102F48036002EF5D04FF0A0
:100AB000E026366926F001064FF0E0273E61002669
:100AC000BE61401C5E1CB042D0DBF0BD00000020C7
:100AD000FFF76EFD0EE00120074908604FF4FA7041
:100AE000FFF7B2FF00200549C1F8A4024FF4FA70E5
:100AF000FFF7AAFFEFE70000A482424200804242D3
:100B00004FF04070E1EE100A704700002C0B000817
:100B10000000002034000000C4010008600B000841
:100B200034000020AC060000E0010008007A030A4F
:100B3000000000000000000001020304060708098D
:100B4000A58126A58227000000000000000000000B
:100B50000000000000000000000000000000000095
:040000050800018965
:00000001FF
