:020000040800F2
:1000000070060020290200083102000833020008AF
:10001000350200083702000839020008000000001D
:100020000000000000000000000000003B0200088B
:100030003D020008000000003F02000841020008E5
:10004000430200084302000843020008430200087C
:10005000430200084302000843020008430200086C
:10006000430200084302000843020008430200085C
:10007000430200084302000843020008430200084C
:10008000430200084302000843020008430200083C
:10009000430200084302000843020008430200082C
:1000A000430200084302000843020008430200081C
:1000B000430200084302000843020008430200080C
:1000C00043020008430200084302000843020008FC
:1000D00043020008430200084302000843020008EC
:1000E00043020008430200084302000843020008DC
:1000F00043020008430200084302000843020008CC
:1001000043020008430200084302000843020008BB
:1001100043020008430200084302000843020008AB
:10012000430200084302000843020008430200089B
:10013000430200084302000843020008430200088B
:10014000430200084302000843020008430200087B
:10015000430200084302000843020008430200086B
:10016000430200084302000843020008430200085B
:10017000430200084302000843020008430200084B
:10018000430200084302000800F002F800F03CF8C7
:100190000AA090E8000C82448344AAF10107DA45E2
:1001A00001D100F031F8AFF2090EBAE80F0013F0F8
:1001B000010F18BFFB1A43F0010318474C09000058
:1001C0006C090000103A24BF78C878C1FAD85207E9
:1001D00024BF30C830C144BF04680C6070470000C1
:1001E0000023002400250026103A28BF78C1FBD840
:1001F000520728BF30C148BF0B6070471FB500F0E1
:100200007DFC1FBD10B510BD00F031F81146FFF7A1
:10021000F5FF00F067FB00F04FF803B4FFF7F2FFC3
:1002200003BC00F053F80000094880470948004724
:10023000FEE7FEE7FEE7FEE7FEE7FEE7FEE7FEE796
:10024000FEE7FEE704480549054A064B70470000F3
:10025000C106000889010008700000207006002017
:10026000700200207002002070477047704775468A
:1002700000F028F8AE4605006946534620F0070016
:10028000854618B020B5FFF7DDFFBDE820404FF0F0
:1002900000064FF000074FF000084FF0000B21F070
:1002A0000701AC46ACE8C009ACE8C009ACE8C0093D
:1002B000ACE8C0098D4670470446AFF30080204685
:1002C000FFF7ABFF004870470C00002001491820E1
:1002D000ABBEFEE7260002007047F0B50A460021DB
:1002E0000023002400BF3DE0012505FA01F3156855
:1002F00005EA03049C4234D105684F000326BE4042
:10030000B543056015794E00B54006683543056074
:100310001579012D02D01579022D16D185684F006F
:100320000326BE40B543856055794E00B5408668CA
:1003300035438560456801268E40B5434560456874
:1003400096798E40B6B235434560C5684F000326A6
:10035000BE40B543C560D5794E00B540C66835434B
:10036000C560491C1029BFD3F0BD024600201369A7
:100370000B400BB1012000E0002070474183704723
:100380000183704710B50121112000F013F91D20E1
:100390000749086000200871032048710020C871D7
:1003A0000448FFF79AFF02490348FFF796FF10BD84
:1003B00000000020001002400000024010B50121A2
:1003C0006648FFF7D2FF68BB04216548FFF7CDFF01
:1003D000012827D108216248FFF7C7FF012821D152
:1003E00010215F48FFF7C1FF01281BD1052000F055
:1003F000CFF901215948FFF7B8FF98B904215848AF
:10040000FFF7B3FF01280DD108215548FFF7ADFFD5
:10041000012807D110215248FFF7A7FF012801D179
:100420005049087001214D48FFF79FFF01282CD14A
:1004300004214B48FFF799FF38BB08214848FFF7D4
:1004400094FF012821D110214548FFF78EFF012894
:100450001BD1052000F09CF901214048FFF785FFE2
:10046000012812D104213E48FFF77FFF68B9082117
:100470003B48FFF77AFF012807D110213848FFF7E2
:1004800074FF012801D13849087001213348FFF772
:100490006CFF01282CD104213148FFF766FF0128A9
:1004A00026D108212E48FFF760FF08BB10212C48F9
:1004B000FFF75BFF01281BD1052000F069F901213E
:1004C0002648FFF752FF012812D104212448FFF7E4
:1004D0004CFF01280CD108212148FFF746FF38B90D
:1004E00010211F48FFF741FF012801D11F49087063
:1004F00001211A48FFF739FF01282DD1042118489E
:10050000FFF733FF012827D108211548FFF72DFFFA
:10051000012821D110211248FFF727FFE0B905205B
:1005200000F036F901210D48FFF71FFF012813D114
:1005300004210B48FFF719FF01280DD108210848B5
:10054000FFF713FF012807D110210548FFF70DFF22
:1005500010B901200649087010BD000000000240DB
:100560000010024008000020090000200A000020BE
:100570000B00002010B50121302000F01BF84FF4D3
:10058000CC400949086001200871002088710320CF
:1005900048710020C8710548FFF79FFE02490448D2
:1005A000FFF79BFE10BD0000000000200014024079
:1005B0000010024029B1064A12680243044B1A6037
:1005C00004E0034A12688243014B1A60704700003E
:1005D000303802400CB5002001900090344800688B
:1005E00040F480303249086000BF3148006800F4B0
:1005F000003000900198401C0190009818B90198B3
:10060000B0F5A04FF1D12A48006800F4003010B1D5
:100610000120009001E0002000900098012846D1C0
:1006200023484030006840F0805021494031086044
:100630002048006840F440401E4908601C480830CB
:1006400000681B49083108600846006840F4004013
:1006500008600846006840F4A05008601648091F6A
:100660000860081F006840F08070091F086000BF24
:100670000F48006800F000700028F9D040F20570C3
:100680000E4908600A480830006820F00300084955
:10069000083108600846006840F00200086000BFAA
:1006A00003480830006800F00C000828F8D10CBDA1
:1006B000003802400070004008544007003C0240EF
:1006C00010B51548006840F47000134908601348DD
:1006D000006840F001001149086000200F4908310E
:1006E00008600E4800680E4908400C4908600D4833
:1006F000091D0860081F006820F48020091F086099
:10070000002006490C310860FFF764FF4FF00060DD
:1007100001498039086010BD88ED00E000380240D2
:10072000FFFFF6FE1030002410B54FF4007116489C
:10073000FFF724FE4FF480611348FFF71FFE4FF4CC
:1007400000511248FFF71AFE4FF480410F48FFF79F
:1007500015FEC82000F01CF84FF400710A48FFF79E
:100760000FFE4FF480610848FFF70AFE4FF4005176
:100770000648FFF705FE4FF480410448FFF700FEEE
:10078000C82000F005F810BD00140240001002401F
:1007900015E000214FF0E02211610B495161002169
:1007A00091610521116100BF4FF0E021096901F459
:1007B00080310029F8D000214FF0E02211610100C2
:1007C000A0F10100E5D170474090020010B54FF450
:1007D00000711F48FFF7D2FDC820FFF7D9FF4FF483
:1007E00000711B48FFF7CCFDC820FFF7D1FF4FF485
:1007F00080611748FFF7C2FDC820FFF7C9FF4FF41B
:1008000080611348FFF7BCFDC820FFF7C1FF4FF41C
:1008100000511048FFF7B2FDC820FFF7B9FF4FF4B1
:1008200000510C48FFF7ACFDC820FFF7B1FF4FF4B3
:1008300080410848FFF7A2FDC820FFF7A9FF4FF449
:1008400080410448FFF79CFDC820FFF7A1FF10BDC1
:10085000001402400010024010B54FF400711F4810
:10086000FFF78EFDC820FFF793FF4FF400711B4880
:10087000FFF784FDC820FFF78BFF4FF48061174816
:10088000FFF77EFDC820FFF783FF4FF48061134818
:10089000FFF774FDC820FFF77BFF4FF400511048AD
:1008A000FFF76EFDC820FFF773FF4FF400510C48AF
:1008B000FFF764FDC820FFF76BFF4FF48041084845
:1008C000FFF75EFDC820FFF763FF4FF48041044847
:1008D000FFF754FDC820FFF75BFF10BD0014024076
:1008E00000100240FFF746FEFFF74CFD4FF4007189
:1008F0000C48FFF745FD4FF480610A48FFF740FDC3
:100900004FF400510848FFF73BFD4FF48041064883
:10091000FFF736FD0520FFF73BFF01E000F006F88A
:10092000FCE70000001402400010024010B5FFF781
:1009300045FD4F480078A8B110E0FFF747FFFFF7EB
:100940003DFD4C48007828B94B48007810B94B4819
:10095000007818B100204649087010BD444800785E
:100960000028EAD14348007840B34FF4007144486E
:10097000FFF704FD4FF480614148FFF7FFFC4FF49F
:1009800000514048FFF7FAFC4FF480413D48FFF723
:10099000F5FC0FE0FFF760FFFFF710FD344800782B
:1009A00028B93548007810B93448007810B10020D3
:1009B000304908702F4800780028EBD12E48007885
:1009C00040B34FF400712E48FFF7DAFC4FF480611A
:1009D0002B48FFF7D5FC4FF400512A48FFF7D0FC15
:1009E0004FF480412748FFF7CBFC0FE000F04CF8B4
:1009F000FFF7E4FC1E48007828B91E48007810B9BB
:100A00001E48007810B100201B4908701A48007871
:100A10000028EBD11948007840B34FF40071184812
:100A2000FFF7AEFC4FF480611548FFF7A9FC4FF4C7
:100A300000511448FFF7A4FC4FF480411148FFF720
:100A40009FFC0FE0FFF770FEFFF7B8FC0848007846
:100A500028B90848007810B90748007810B100207C
:100A600006490870054800780028EBD100BF74E7FC
:100A700008000020090000200A0000200B000020D0
:100A8000001402400010024010B54FF400711948E4
:100A9000FFF774FC4FF480611648FFF76FFCC82025
:100AA000FFF776FE4FF400711248FFF769FC4FF430
:100AB00080611048FFF764FCC820FFF769FE4FF41F
:100AC00000510D48FFF75AFC4FF480410A48FFF7E8
:100AD00055FCC820FFF75CFE4FF400510648FFF7B5
:100AE0004FFC4FF480410448FFF74AFCC820FFF751
:100AF0004FFE10BD00140240001002404FF0407045
:100B0000E1EE100A70470000280B000800000020EA
:100B10000C000000C4010008340B00080C00002089
:100B200064060000E0010008000000000000000072
:040B300000000000C1
:0400000508000229C4
:00000001FF
