:020000040800F2
:10000000C806002031020008390200083B0200083F
:100010003D0200083F020008410200080000000005
:100020000000000000000000000000004302000883
:1000300045020008000000004702000849020008CD
:100040004B0200084B0200084B0200084B0200085C
:100050004B0200084B0200084B0200084B0200084C
:100060004B0200084B0200084B0200084B0200083C
:100070004B0200084B0200084B0200084B0200082C
:100080004B0200084B0200084B0200084B0200081C
:100090004B0200084B0200084B0200084B0200080C
:1000A0004B0200084B0200084B0200084B020008FC
:1000B0004B0200084B0200084B0200084B020008EC
:1000C0004B0200084B0200084B0200084B020008DC
:1000D0004B0200082D0900085D0900084B020008CA
:1000E0004B0200084B0200084B0200084B020008BC
:1000F0004B0200084B0200084B0200084B020008AC
:100100004B0200084B0200084B0200084B0200089B
:100110004B0200084B0200084B0200084B0200088B
:100120004B0200084B0200084B0200084B0200087B
:100130004B0200084B0200084B0200084B0200086B
:100140004B0200084B0200084B0200084B0200085B
:100150004B0200084B0200084B0200084B0200084B
:100160004B0200084B0200084B0200084B0200083B
:100170004B0200084B0200084B0200084B0200082B
:100180004B0200084B02000800F002F800F041F8B2
:100190000AA090E8000C82448344AAF10107DA45E2
:1001A00001D100F036F8AFF2090EBAE80F0013F0F3
:1001B000010F18BFFB1A43F001031847140D00008C
:1001C000340D0000103A24BF78C878C1FAD852071D
:1001D00024BF30C830C144BF04680C6070470000C1
:1001E0000023002400250026103A28BF78C1FBD840
:1001F000520728BF30C148BF0B607047642900F028
:100200007F80002070471FB500F05CFE1FBD10B559
:1002100010BD00F04AF91146FFF7F5FF00F07EFD32
:1002200000F068F903B4FFF7F2FF03BC00F06CF9CB
:100230000948804709480047FEE7FEE7FEE7FEE77A
:10024000FEE7FEE7FEE7FEE7FEE7FEE704480549B6
:10025000054A064B70470000C508000889010008E0
:10026000C8000020C8060020C8020020C8020020E4
:100270000FB41CB5074B06AA7B446946009005984D
:1002800000F0FBF80020694600F00AF91CBC5DF89C
:1002900014FB0000250200002DE9F0410E46044643
:1002A000002020622046E168884730B3252805D029
:1002B000D4E901219047206A401CF2E7E16820461A
:1002C00000278847050018D0A5F14100192802D859
:1002D00020354FF400673246294620462760FFF755
:1002E0008DFF40B1012804D0F61D26F00706083620
:1002F000D8E7361DD6E72846DAE7206ABDE8F08160
:100300002DE9F0410646002410687529314616A5EE
:1003100010D0AFF30080002802DA404213A507E0B6
:1003200031688A0701D512A502E0490704D511A555
:10033000012401E0AFF3008000210A2206F1240726
:1003400009E0B0FBF2FCB0FBF2F302FB1C00303022
:1003500078541846491C0028F3D123462A463046D3
:10036000BDE8F04100F02AB8000000002D000000B8
:100370002B0000002000000010B5431C02E010F824
:10038000011B71B18107FAD14FF0013202C88C1AFA
:100390008C4314EAC211F9D0C01A0A0603D0C01E59
:1003A00010BDC01A10BD0A0401D0801E10BD090284
:1003B000FCD0401E10BD7047704770472DE9F047D4
:1003C0000D4699469246044600F1240801688806C5
:1003D00004D5E06921F01001216000E00120A8426D
:1003E00001DD471B00E00027A1697A1902EB090033
:1003F000081AA0612078C00602D42046AFF300801E
:10040000002608E0D4E901211AF806009047206A86
:10041000401C761C20624E45F4DB2078C0060AD5CD
:100420002046AFF3008006E0D4E901213020904758
:10043000206A401C2062381EA7F10107F4DC07E0A7
:10044000D4E9012118F805009047206A401C206279
:10045000281EA5F10105F3DC2046AFF300802078CB
:10046000000602D50220BDE8F0870120FBE700006E
:1004700001694A1C02610878704700B58FB0CDE968
:1004800001310021059105497944CDE90310114658
:100490006846FFF701FF0FB000BD0000E5FFFFFF5A
:1004A0000A6802F8010B0A607047754600F028F8E8
:1004B000AE4605006946534620F00700854618B051
:1004C00020B5FFF7C3FEBDE820404FF000064FF017
:1004D00000074FF000084FF0000B21F00701AC4679
:1004E000ACE8C009ACE8C009ACE8C009ACE8C00998
:1004F0008D4670470446AFF300802046FFF792FE1A
:10050000004870476800002001491820ABBEFEE794
:10051000260002007047F0B50A460021002300249F
:1005200000BF3DE0012505FA01F3156805EA030463
:100530009C4234D105684F000326BE40B543056098
:1005400015794E00B5400668354305601579012DD3
:1005500002D01579022D16D185684F000326BE40C2
:10056000B543856055794E00B54086683543856052
:10057000456801268E40B5434560456896798E40B2
:10058000B6B235434560C5684F000326BE40B5434B
:10059000C560D5794E00B540C6683543C560491C75
:1005A0001029BFD3F0BDF0B5002300244D07ED0E98
:1005B00002FA05F3CE1000F1200555F826504E073B
:1005C000F70E0F26BE40B543CF1000F1200646F8C7
:1005D0002750CE1000F1200555F8265045EA0304B7
:1005E000CE1000F1200545F82640F0BD418370474C
:1005F0000183704770B5002100230F22C4781CB31B
:10060000174C246804F4E064C4F5E064C4F30721E3
:10061000C1F10404E3B20A4144789C40E1B2847819
:10062000144021430C07210E0E4C057861550478C7
:1006300004F01F050124AC4005786D11AD0005F1F3
:10064000E025C5F8004109E0047804F01F05012405
:10065000AC40054D0678761145F8264070BD000087
:100660000CED00E000E400E080E100E029B1064A82
:1006700012680243044B1A6004E0034A1268824382
:10068000014B1A60704700003038024029B1064A19
:1006900012680243044B1A6004E0034A1268824362
:1006A000014B1A60704700004038024029B1064AE9
:1006B00012680243044B1A6004E0034A1268824342
:1006C000014B1A607047000044380240F0B5002129
:1006D00000220024022500260223324F3F6807F043
:1006E0000C0121B1042905D0082937D105E02E4F8E
:1006F000076036E02D4F076033E02A4F3F1F3F6809
:10070000C7F38056274F3F1F3F6807F03F036EB186
:10071000264FB7FBF3F7DFF88CC0ACF1040CDCF824
:1007200000C0CCF3881C07FB0CF40CE01E4FB7FB99
:10073000F3F7DFF870C0ACF1040CDCF800C0CCF3C8
:10074000881C07FB0CF4174F3F1F3F68C7F3014796
:100750007F1C7D00B4FBF5F7076002E0124F0760D5
:1007600000BF00BF0F4F3F6807F0F0010909104FAD
:100770007A5C0768D74047600A4F3F6807F4E0514A
:10078000890A0B4F7A5C4768D7408760054F3F68FE
:1007900007F46041490B064F7A5C4768D740C76051
:1007A000F0BD0000083802400024F40000127A0076
:1007B0001400002010B502460B460024012104E07D
:1007C000505C2044C4B2481CC1B2581E8842F7DCB9
:1007D000E043401CC0B210BD0CB500200190009059
:1007E0003448006840F480303249086000BF314826
:1007F000006800F4003000900198401C01900098BF
:1008000018B90198B0F5A04FF1D12A48006800F45A
:10081000003010B10120009001E00020009000980D
:10082000012846D123484030006840F080502149DB
:10083000403108602048006840F440401E4908608C
:100840001C48083000681B490831086008460068E9
:1008500040F4004008600846006840F4A05008607A
:100860001648091F0860081F006840F08070091FC3
:10087000086000BF0F48006800F000700028F9D041
:1008800040F205700E4908600A480830006820F000
:1008900003000849083108600846006840F002007B
:1008A000086000BF03480830006800F00C0008280A
:1008B000F8D10CBD003802400070004008544007D9
:1008C000003C024010B51548006840F47000134920
:1008D00008601348006840F00100114908600020DA
:1008E0000F49083108600E4800680E4908400C495D
:1008F00008600D48091D0860081F006820F480206A
:10090000091F0860002006490C310860FFF764FFEA
:100910004FF0006001498039086010BD88ED00E0AB
:1009200000380240FFFFF6FE1030002410B540F200
:100930002551084800F09CF8012809D1054800F02D
:1009400051F90549087040F22551024800F068F855
:1009500010BD0000001001403800002010B540F22A
:100960002551234800F084F8012840D14102214854
:10097000FFF73CFE1E4800F035F9C1B21E48027870
:100980000078401C1C4B18701C4881540078FF28CC
:1009900002D000201946087017480078092821D194
:1009A00000201549087009211448FFF703FF134977
:1009B000097A884207D11148C0781049897840EAFD
:1009C00001200F4908600E480EA102681248FFF787
:1009D0004FFC1148FFF7D0FC84B222460E490F4865
:1009E00000F009F940F22551014800F019F810BD56
:1009F0000044004000140240390000205C00002048
:100A0000340000207468652076616C756520697318
:100A10002025640D0A0000003C0000200010014069
:100A200010B50022002340F66A14A14200D100BF95
:100A30000A1201249440A3B2DC43048010BD21B10A
:100A4000828942F40052828104E082894DF6FF736C
:100A50001A408281704702460020B1F5007F00D124
:100A600000BF13880B400BB1012000E0002070474D
:100A700070B50246002400230025002040F66A16C7
:100A8000B14200D100BFC1F3421501F01F0301269E
:100A900006FA03F3012D02D19689334006E0022DB8
:100AA00002D1168A334001E0968A33400C120126A7
:100AB00006FA04F41688344013B10CB1012000E0AA
:100AC000002070BDF0B5034600240026002500205C
:100AD00040F66A17B94200D100BF1846C1F342146C
:100AE00001F01F06012707FA06F5012C01D10C3091
:100AF00004E0022C01D1103000E014301AB1076874
:100B00002F43076002E00768AF430760F0BD0000B5
:100B10002DE9FF4705460E460024A14600BFA0462A
:100B2000B08900B100BF2C8A24F44054F0880443FB
:100B30002C82AC8941F20C608443B088318908432F
:100B4000718908430443AC81AC8A24F44074B089B1
:100B50000443AC826846FFF7B9FD2048854202D0C5
:100B60001F48854202D1DDF80C9001E0DDF80890C5
:100B7000A88900F4004040B109EBC90000EB09105E
:100B800031684900B0FBF1F707E009EBC90000EB61
:100B9000091031688900B0FBF1F76420B7FBF0F071
:100BA00004012009642101FB1078A88900F40040A9
:100BB00040B1322000EBC800B0FBF1F000F00700BC
:100BC000044308E0322000EB08106421B0FBF1F090
:100BD00000F00F0004432C81BDE8FF8700100140A6
:100BE0000014014001468888C0F308007047C1F333
:100BF0000802828070472DE9F04107460D461646EF
:100C000000240CE0295D3846FFF7F1FF00BF80218A
:100C10003846FFF720FF0028F9D0601C84B2B442A8
:100C2000F0DBBDE8F0810000F0B501464FF4FA7545
:100C30002E4691FBF6F391FBF6F706FB17140CB169
:100C40001E4600E05E1E334600202BE014B19842A1
:100C500000D12546154E3668F6084FF47A77B6FB74
:100C6000F7F66E434FF0E0277E610026BE613E46F8
:100C7000366946F001063E6100BF4FF0E02632695A
:100C800002F001061EB102F48036002EF5D04FF0BE
:100C9000E026366926F001064FF0E0273E61002687
:100CA000BE61401C5E1CB042D0DBF0BD00000020E5
:100CB0001CB501210820FFF7D9FCFF20009001207E
:100CC0008DF8040000208DF806008DF805006946B7
:100CD0001148FFF720FC01210F48FFF787FC022194
:100CE0000D48FFF783FC04210B48FFF77FFC082128
:100CF0000948FFF77BFC10210748FFF777FC20210C
:100D00000548FFF773FC40210348FFF76FFC802183
:100D10000148FFF76BFC1CBD000C0240FFF7C8FF49
:100D20004FF400710D48FFF763FC4FF480610B48EE
:100D3000FFF75EFC4FF4165000F016F84FF4165013
:100D400000F068F808E0092205490648FFF753FF5C
:100D50004FF47A70FFF768FFF5E7000000140240D7
:100D6000280000200044004010B588B0044601214E
:100D70000846FFF77BFC4FF4C060069002208DF818
:100D80001C0000208DF81E0003208DF81D0006A910
:100D90001E48FFF7C0FB072209211C48FFF703FC90
:100DA00007220A211948FFF7FEFB01211020FFF757
:100DB0007DFC02940020ADF814000C20ADF8120068
:100DC0000020ADF81000ADF80E00ADF80C0002A93F
:100DD0000F48FFF79DFE012240F225510C48FFF716
:100DE00071FE25208DF8040001208DF805000220F9
:100DF0008DF8060001208DF8070001A8FFF7FAFB27
:100E000001210348FFF71BFE08B010BD000002409F
:100E10000010014010B588B0044601210846FFF7D4
:100E200025FC02208DF81C0000208DF81E000C20EF
:100E3000069000208DF81F0003208DF81D0006A9E4
:100E40001E48FFF768FB072202211C48FFF7ABFB97
:100E5000072203211948FFF7A6FB01214804FFF7E9
:100E600015FC02940020ADF814000C20ADF812001F
:100E70000020ADF81000ADF80E00ADF80C0002A98E
:100E80000F48FFF745FE012240F225510C48FFF7BD
:100E900019FE26208DF8040001208DF807008DF83A
:100EA000050002208DF8060001A8FFF7A3FB012131
:100EB0000348FFF7C4FD08B010BD00000000024069
:100EC000004400404FF04070E1EE100A704700000F
:100ED000F00E0008000000203C000000C4010008E3
:100EE0002C0F00083C0000208C060000E0010008E8
:100EF000007A030A00000000000000000102030461
:100F000006070809000000000102030401020304AF
:100F10000607080900000000FF018600000000002D
:0C0F20007900000000000000000000004C
:040000050800018965
:00000001FF
